:100000000C9462000C948A000C948A000C948A0070
:100010000C948A000C948A000C948A000C948A0038
:100020000C948A000C948A000C948A000C948A0028
:100030000C948A000C948A000C948A000C948A0018
:100040000C9463020C948A000C94D3020C94AD02BD
:100050000C948A000C948A000C948A000C948A00F8
:100060000C948A000C948A000000000023002600F3
:10007000290000000000240027002A0000000000E2
:10008000250028002B0004040404040404040202D4
:100090000202020203030303030301020408102007
:1000A0004080010204081020010204081020000012
:1000B0000008000201000003040700000000000027
:1000C0000000410411241FBECFEFD8E0DEBFCDBF3A
:1000D00011E0A0E0B1E0ECEEF8E002C005900D9276
:1000E000A833B107D9F721E0A8E3B1E001C01D9220
:1000F000A13EB207E1F710E0C2E6D0E004C02197CC
:10010000FE010E946E04C136D107C9F70E940503A3
:100110000C9474040C940000833081F028F4813036
:1001200099F08230A9F008958730A9F08830C9F09D
:100130008430B1F4809180008F7D03C08091800075
:100140008F7780938000089584B58F7784BD08955C
:1001500084B58F7DFBCF8091B0008F778093B00006
:1001600008958091B0008F7DF9CF1F93CF93DF93D7
:10017000282F30E0F901E255FF4F8491F901E6564E
:10018000FF4FD491F901EA57FF4FC491CC23A9F056
:10019000162F81110E948C00EC2FF0E0EE0FFF1F54
:1001A000E458FF4FA591B4918FB7F894EC911111D9
:1001B00008C0D095DE23DC938FBFDF91CF911F91D4
:1001C0000895DE2BF8CFCF93DF9390E0FC01E65645
:1001D000FF4F24918A579F4FFC0184918823D1F0CF
:1001E00090E0880F991FFC01EE58FF4FA591B49144
:1001F000FC01E458FF4FC591D49161110EC09FB727
:10020000F8948C91E22FE0958E238C932881E22341
:10021000E8839FBFDF91CF9108958FB7F894EC9159
:10022000E22BEC938FBFF6CF3FB7F894809140015B
:1002300090914101A0914201B091430126B5A89B44
:1002400005C02F3F19F00196A11DB11D3FBFBA2F68
:10025000A92F982F8827BC01CD01620F711D811D28
:10026000911D42E0660F771F881F991F4A95D1F7AD
:100270000895AF92BF92CF92DF92EF92FF920F93C9
:100280001F93CF93DF936C017B018B01040F151F2C
:10029000EB015E01AE18BF08C017D10759F0699194
:1002A000D601ED91FC910190F081E02DC6010995F8
:1002B000892B79F7C501DF91CF911F910F91FF90A5
:1002C000EF90DF90CF90BF90AF900895FC01538DD9
:1002D000448D252F30E0842F90E0821B930B541720
:1002E00010F0CF96089501970895FC01918D828DAD
:1002F000981761F0A28DAE0FBF2FB11D5D968C9146
:10030000928D9F5F9F73928F90E008958FEF9FEF84
:100310000895FC01918D828D981731F0828DE80F40
:10032000F11D858D90E008958FEF9FEF0895FC01FA
:10033000918D228D892F90E0805C9F4F821B9109C7
:100340008F739927089584E491E00E94970121E03A
:10035000892B09F420E0822F089580E090E0892B1A
:1003600029F00E94A30181110C9400000895FC0162
:10037000A48DA80FB92FB11DA35ABF4F2C91848D06
:1003800090E001968F739927848FA689B7892C9363
:10039000A089B1898C91837080648C93938D848DB6
:1003A000981306C00288F389E02D80818F7D8083B9
:1003B0000895EF92FF920F931F93CF93DF93EC0179
:1003C00081E0888F9B8D8C8D98131AC0E889F989FC
:1003D000808185FF15C09FB7F894EE89FF896083FF
:1003E000E889F98980818370806480839FBF81E080
:1003F00090E0DF91CF911F910F91FF90EF900895C2
:10040000F62E0B8D10E00F5F1F4F0F731127E02E9C
:100410008C8D8E110CC00FB607FCFACFE889F989D4
:10042000808185FFF5CFCE010E94B701F1CFEB8D22
:10043000EC0FFD2FF11DE35AFF4FF0829FB7F894A8
:100440000B8FEA89FB8980818062CFCFCF93DF93C6
:10045000EC01888D8823B9F0AA89BB89E889F989DC
:100460008C9185FD03C0808186FD0DC00FB607FC11
:10047000F7CF8C9185FFF2CF808185FFEDCFCE0144
:100480000E94B701E9CFDF91CF910895CF93DF9319
:10049000FC0101900020E9F73197AF01481B590B8F
:1004A000BC0184E491E00E943901EC0142E050E09B
:1004B00062E171E084E491E00E9439018C0F9D1F9C
:1004C000DF91CF9108951F920F920FB60F921124D2
:1004D0002F933F938F939F93AF93BF9380913C0152
:1004E00090913D01A0913E01B0913F0130913B01BF
:1004F00023E0230F2D3758F50196A11DB11D209340
:100500003B0180933C0190933D01A0933E01B09349
:100510003F018091400190914101A0914201B09131
:1005200043010196A11DB11D8093400190934101AB
:10053000A0934201B0934301BF91AF919F918F91DE
:100540003F912F910F900FBE0F901F90189526E8A6
:10055000230F0296A11DB11DD2CF1F920F920FB68D
:100560000F9211242F933F934F935F936F937F9339
:100570008F939F93AF93BF93EF93FF9384E491E0A6
:100580000E94B701FF91EF91BF91AF919F918F9121
:100590007F916F915F914F913F912F910F900FBE7F
:1005A0000F901F9018951F920F920FB60F92112463
:1005B0002F938F939F93EF93FF93E0915401F091CA
:1005C00055018081E0915A01F0915B0182FD1BC0D1
:1005D000908180915D018F5F8F7320915E01821702
:1005E00041F0E0915D01F0E0EC5BFE4F958F809370
:1005F0005D01FF91EF919F918F912F910F900FBE11
:100600000F901F9018958081F4CF789484B5826004
:1006100084BD84B5816084BD85B5826085BD85B5A6
:10062000816085BD80916E00816080936E00109224
:10063000810080918100826080938100809181009F
:100640008160809381008091800081608093800030
:100650008091B10084608093B1008091B00081608E
:100660008093B00080917A00846080937A008091BA
:100670007A00826080937A0080917A008160809312
:100680007A0080917A00806880937A001092C1008D
:10069000E0915401F091550182E08083E091500196
:1006A000F09151011082E0915201F091530180E1EB
:1006B000808310925C01E0915801F091590186E02D
:1006C0008083E0915601F0915701808180618083A1
:1006D000E0915601F0915701808188608083E0911C
:1006E0005601F0915701808180688083E091560126
:1006F000F091570180818F7D808360E082E00E94CD
:10070000E30061E087E00E94E300CFB7F8948091B6
:100710003801811127C0E0E9F0E08491E4EAF0E0DB
:100720009491E82FF0E0EE0FFF1FEE58FF4FA591D8
:10073000B491EC91E92321F461E08AE00E94B500D4
:1007400061E08AE00E94E3008CB580618CBD8CB5CD
:1007500080648CBD61E08DE00E94E30061E08BE08D
:100760000E94E300809138018F5F80933801CFBFF2
:100770008CB58C7F81608CBD8DB581608DBD61E055
:100780008AE00E94B50020EB222E20E0322E3CE9C8
:10079000832E30E0932EC8E8D0E000E010E0AA24D9
:1007A000A394B12CF1018491F401F490FE01E49042
:1007B000EE2009F45AC081110E948C00EE2DF0E069
:1007C000EE0FFF1FE859FF4FA591B4918C91F822CD
:1007D00009F44BC0B0923A01A092390160E08AE07E
:1007E0000E94B500809139018EBD00000DB407FE56
:1007F000FDCF8EB58130F1F561E087E00E94B50054
:1008000085E191E00E9446020E9414016B017C0187
:1008100088EE482E83E0582E612C712C0E94140122
:100820006C197D098E099F09683E73408105910509
:10083000A8F3F1E04F1A51086108710828EEC20EC2
:1008400023E0D21EE11CF11C411451046104710427
:1008500029F70115110509F4A5CF0E94A3018823EA
:1008600009F4A0CF0E9400009DCF10923A0110928F
:100870003901B4CF60E087E00E94B50086E291E0E4
:10088000C1CFE4E4F1E01382128288EE93E0A0E0AD
:10089000B0E084839583A683B78384E091E091835D
:1008A000808385EC90E09587848784EC90E097873F
:1008B000868780EC90E0918B808B81EC90E0938B2D
:1008C000828B82EC90E0958B848B86EC90E0978B0A
:1008D000868B118E128E138E148E0895EE0FFF1FCD
:0C08E0000590F491E02D0994F894FFCFEE
:1008EC0000000000D901390166012602970175014B
:1008FC0089010D0A004D6173746572204C454420CA
:10090C006973204F4E004D6173746572204C4544E1
:08091C00206973204F464600DC
:00000001FF
