:100000000C9463000C9406030C94DF020C948B0098
:100010000C948B000C948B000C948B000C942D038F
:100020000C948B000C948B000C948B000C948B0024
:100030000C948B000C948B000C948B000C948B0014
:100040000C9495020C948B000C94AF030C948903D0
:100050000C948B000C948B000C948B000C948B00F4
:100060000C948B000C948B000000000023002600F1
:1000700029000200000000240027002A00000000E0
:1000800000250028002B00040404040404040402D6
:100090000202020202030303030303010204081025
:1000A00020408001020408102001020408102000F2
:1000B0000000080002010000030407000000000027
:1000C00000000000AA0511241FBECFEFD8E0DEBF5C
:1000D000CDBF11E0A0E0B1E0EEEBFBE002C0059087
:1000E0000D92AA33B107D9F721E0AAE3B1E001C02C
:1000F0001D92A23FB207E1F710E0C3E6D0E004C0D2
:100100002197FE010E94D705C236D107C9F70E9488
:10011000E1030C94DD050C940000833081F028F499
:10012000813099F08230A9F008958730A9F08830A5
:10013000C9F08430B1F4809180008F7D03C080913C
:1001400080008F7780938000089584B58F7784BD79
:10015000089584B58F7DFBCF8091B0008F77809319
:10016000B00008958091B0008F7DF9CF1F93CF9399
:10017000DF93282F30E0F901E155FF4F8491F90119
:10018000E556FF4FD491F901E957FF4FC491CC23B5
:10019000A9F0162F81110E948D00EC2FF0E0EE0FD8
:1001A000FF1FE358FF4FA591B4918FB7F894EC91DE
:1001B000111108C0D095DE23DC938FBFDF91CF9162
:1001C0001F910895DE2BF8CFCF93DF9390E0FC01D1
:1001D000E556FF4F249189579F4FFC018491882356
:1001E000D1F090E0880F991FFC01ED58FF4FA591C9
:1001F000B491FC01E358FF4FC591D49161110EC039
:100200009FB7F8948C91E22FE0958E238C932881F0
:10021000E223E8839FBFDF91CF9108958FB7F894D1
:10022000EC91E22BEC938FBFF6CF3FB7F89480911F
:10023000510190915201A0915301B091540126B502
:10024000A89B05C02F3F19F00196A11DB11D3FBF0E
:10025000BA2FA92F982F8827BC01CD01620F711DDD
:10026000811D911D42E0660F771F881F991F4A95D7
:10027000D1F7089581E080933A010895089590910F
:10028000040189130BC0E2E7F0E0E4919FEF909343
:100290000401E13049F028F0E23061F060E00C94B4
:1002A000B60010926E00FACF90916F009D7F9093F0
:1002B0006F00F4CF909170009D7F9093700091E05B
:1002C0009093B0009091B100987F94609093B100AA
:1002D0001092B300E3CFAF92BF92CF92DF92EF9232
:1002E000FF920F931F93CF93DF936C017B018B01E0
:1002F000040F151FEB015E01AE18BF08C017D10730
:1003000059F06991D601ED91FC910190F081E02DB9
:10031000C6010995892B79F7C501DF91CF911F910E
:100320000F91FF90EF90DF90CF90BF90AF90089526
:10033000FC01538D448D252F30E0842F90E0821BEB
:10034000930B541710F0CF96089501970895FC0170
:10035000918D828D981761F0A28DAE0FBF2FB11DC8
:100360005D968C91928D9F5F9F73928F90E0089520
:100370008FEF9FEF0895FC01918D828D981731F0DA
:10038000828DE80FF11D858D90E008958FEF9FEF2E
:100390000895FC01918D228D892F90E0805C9F4F04
:1003A000821B91098F739927089585E591E00E943A
:1003B000C90121E0892B09F420E0822F089580E013
:1003C00090E0892B29F00E94D50181110C94000046
:1003D0000895FC01A48DA80FB92FB11DA35ABF4FDA
:1003E0002C91848D90E001968F739927848FA68934
:1003F000B7892C93A089B1898C91837080648C9388
:10040000938D848D981306C00288F389E02D808136
:100410008F7D80830895EF92FF920F931F93CF9368
:10042000DF93EC0181E0888F9B8D8C8D98131AC02F
:10043000E889F989808185FF15C09FB7F894EE8916
:10044000FF896083E889F989808183708064808373
:100450009FBF81E090E0DF91CF911F910F91FF90BE
:10046000EF900895F62E0B8D10E00F5F1F4F0F7366
:100470001127E02E8C8D8E110CC00FB607FCFACF21
:10048000E889F989808185FFF5CFCE010E94E901D5
:10049000F1CFEB8DEC0FFD2FF11DE35AFF4FF082F2
:1004A0009FB7F8940B8FEA89FB8980818062CFCF58
:1004B000CF93DF93EC01888D8823B9F0AA89BB899B
:1004C000E889F9898C9185FD03C0808186FD0DC086
:1004D0000FB607FCF7CF8C9185FFF2CF808185FFA7
:1004E000EDCFCE010E94E901E9CFDF91CF910895D0
:1004F000CF93DF93FC0101900020E9F73197AF0122
:10050000481B590BBC0185E591E00E946B01EC0191
:1005100042E050E067E171E085E591E00E946B0107
:100520008C0F9D1FDF91CF9108951F920F920FB6F0
:100530000F9211242F933F938F939F93AF93BF9369
:1005400080914D0190914E01A0914F01B0915001C9
:1005500030914C0123E0230F2D3758F50196A11D52
:10056000B11D20934C0180934D0190934E01A093B7
:100570004F01B09350018091510190915201A0918F
:100580005301B09154010196A11DB11D80935101F9
:1005900090935201A0935301B0935401BF91AF9136
:1005A0009F918F913F912F910F900FBE0F901F90B1
:1005B000189526E8230F0296A11DB11DD2CF1F92D8
:1005C0000F920FB60F9211242F933F934F935F9387
:1005D0006F937F938F939F93AF93BF93EF93FF930B
:1005E000E0910201F09103010995FF91EF91BF9114
:1005F000AF919F918F917F916F915F914F913F91BB
:100600002F910F900FBE0F901F9018951F920F9271
:100610000FB60F9211242F933F934F935F936F93D5
:100620007F938F939F93AF93BF93EF93FF93E0914B
:100630000001F09101010995FF91EF91BF91AF91F8
:100640009F918F917F916F915F914F913F912F91EA
:100650000F900FBE0F901F9018951F920F920FB61C
:100660000F9211242F933F934F935F936F937F9338
:100670008F939F93AF93BF93EF93FF93809140012C
:1006800090914101A0914201B0914301892B8A2BA5
:100690008B2BD1F190913B01E0913C01F0913D0118
:1006A0008081892780838091400190914101A091B0
:1006B0004201B0914301181619061A061B069CF454
:1006C0008091400190914101A0914201B09143017C
:1006D0000197A109B1098093400190934101A09332
:1006E0004201B0934301FF91EF91BF91AF919F9170
:1006F0008F917F916F915F914F913F912F910F90CB
:100700000FBE0F901F901895809104010E943F0129
:10071000EACF1F920F920FB60F9211242F933F939F
:100720004F935F936F937F938F939F93AF93BF93F9
:10073000EF93FF9385E591E00E94E901FF91EF912E
:10074000BF91AF919F918F917F916F915F914F91E9
:100750003F912F910F900FBE0F901F9018951F92F1
:100760000F920FB60F9211242F938F939F93EF93B5
:10077000FF93E0916501F09166018081E0916B014A
:10078000F0916C0182FD1BC0908180916E018F5FA2
:100790008F7320916F01821741F0E0916E01F0E0BC
:1007A000EB5AFE4F958F80936E01FF91EF919F91D1
:1007B0008F912F910F900FBE0F901F9018958081F1
:1007C000F4CF789484B5826084BD84B5816084BDA3
:1007D00085B5826085BD85B5816085BD80916E00DF
:1007E000816080936E001092810080918100826010
:1007F000809381008091810081608093810080914D
:1008000080008160809380008091B100846080933B
:10081000B1008091B00081608093B00080917A0037
:10082000846080937A0080917A00826080937A005D
:1008300080917A00816080937A0080917A0080684C
:1008400080937A001092C10060E082E00E94E40090
:1008500061E08DE00E94E40061E08BE00E94E40032
:10086000E0916501F091660182E08083E091610191
:10087000F09162011082E0916301F09164018FECCC
:10088000808310926D01E0916901F0916A0186E028
:100890008083E0916701F0916801808180618083AD
:1008A000E0916701F0916801808188608083E09128
:1008B0006701F0916801808180688083E091670121
:1008C000F091680180818F7D80838AE391E090932D
:1008D0000101809300018091690083608093690029
:1008E000E89A02E910E056EA252E50E0352ECC2495
:1008F000CA94DC2C7601E1EBF0E08491EDE9F0E0C4
:10090000B490E9E8F0E0A490AA2009F419C181119B
:100910000E948D00EA2DF0E0EE0FFF1FE859FF4F17
:10092000A591B4918C91B82209F40AC161E08DE0DF
:100930000E94B600809104018B3031F5E2E7F0E0CF
:10094000C491C7FDC0C061E08BE00E94E400CC23ED
:1009500009F489C0C23009F09AC08091B100887F43
:1009600083608093B10089EF8093B300C09240010F
:10097000D0924101E0924201F092430180917000D7
:100980008260809370009FC08F3F09F09CC08BE015
:1009900080930401E2E7F0E0C491CF3F09F493C0F3
:1009A000C13019F150F0C23009F43CC0C7FD8BC012
:1009B00061E08BE00E94E400CDCF14BC15BC84B58F
:1009C000826084BD85B5816085BDF8018491E82F82
:1009D000F0E0EE0FFF1FE358FF4F85919491F10176
:1009E000849180933F01C0E0AECF109280001092BE
:1009F00081008091810088608093810080918100D6
:100A0000816080938100F8018491E82FF0E0EE0F7F
:100A1000FF1FE358FF4F85919491F10184918093DA
:100A20003E0191CF1092B0001092B1008091B000C1
:100A300082608093B0008091B10081608093B100AA
:100A4000F8018491E82FF0E0EE0FFF1FE358FF4F0D
:100A50008591949190933D0180933C01F1018491A3
:100A600080933B0170CF85B5887F836085BD8CE71F
:100A700087BDC0924801D0924901E0924A01F092AC
:100A80004B0180916E00826080936E001CC0C1306B
:100A900009F04EC080918100887F81608093810041
:100AA0008FE39FE19093890080938800C092440176
:100AB000D0924501E0924601F092470180916F008B
:100AC000826080936F008AE191E00E9478020E9428
:100AD00015012B013C0184E6882E912CA12CB12C10
:100AE0000E9415016419750986099709683E7340CB
:100AF00081059105A8F391E0891A9108A108B10830
:100B0000E8EE4E0EE3E05E1E611C711C8114910440
:100B1000A104B10429F780E090E0892B09F4EBCE21
:100B20000E94D501882309F4E6CE0E940000E3CE9E
:100B3000C23021F0C111C7CF8FE39ACF8FE314CF1A
:100B400060E08DE00E94B6008BE00E943F018AE2E7
:100B500091E0BBCFE5E5F1E01382128288EE93E0ED
:100B6000A0E0B0E084839583A683B78389E091E019
:100B70009183808385EC90E09587848784EC90E076
:100B80009787868780EC90E0918B808B81EC90E05A
:100B9000938B828B82EC90E0958B848B86EC90E03B
:100BA000978B868B118E128E138E148E0895EE0FF6
:0E0BB000FF1F0590F491E02D0994F894FFCFFB
:100BBE003E013E01FF000000000B026B0198015840
:100BCE0002C901A701BB010D0A00466C616D6520CB
:100BDE004465746563746564210053616665202DF8
:0A0BEE00204E6F20466C616D65001B
:00000001FF
