:100000000C9462000C948A000C948A000C948A0070
:100010000C948A000C948A000C948A000C948A0038
:100020000C948A000C948A000C948A000C948A0028
:100030000C948A000C948A000C948A000C948A0018
:100040000C9453020C948A000C94C3020C949D02ED
:100050000C948A000C948A000C948A000C948A00F8
:100060000C948A000C948A000000000023002600F3
:10007000290000000000240027002A0000000000E2
:10008000250028002B0004040404040404040202D4
:100090000202020203030303030301020408102007
:1000A0004080010204081020010204081020000012
:1000B0000008000201000003040700000000000027
:1000C0000000540411241FBECFEFD8E0DEBFCDBF27
:1000D00011E0A0E0B1E0E6E5F9E002C005900D9284
:1000E000A237B107D9F722E0A2E7B1E001C01D9223
:1000F000AA31B207E1F710E0C2E6D0E004C02197D0
:10010000FE010E94A304C136D107C9F70E94F5027F
:100110000C94A9040C940000833081F028F4813001
:1001200099F08230A9F008958730A9F08830C9F09D
:100130008430B1F4809180008F7D03C08091800075
:100140008F7780938000089584B58F7784BD08955C
:1001500084B58F7DFBCF8091B0008F778093B00006
:1001600008958091B0008F7DF9CF1F93CF93DF93D7
:10017000282F30E0F901E255FF4F8491F901E6564E
:10018000FF4FD491F901EA57FF4FC491CC23A9F056
:10019000162F81110E948C00EC2FF0E0EE0FFF1F54
:1001A000E458FF4FA591B4918FB7F894EC911111D9
:1001B00008C0D095DE23DC938FBFDF91CF911F91D4
:1001C0000895DE2BF8CFCF93DF9390E0FC01E65645
:1001D000FF4F24918A579F4FFC0184918823D1F0CF
:1001E00090E0880F991FFC01EE58FF4FA591B49144
:1001F000FC01E458FF4FC591D49161110EC09FB727
:10020000F8948C91E22FE0958E238C932881E22341
:10021000E8839FBFDF91CF9108958FB7F894EC9159
:10022000E22BEC938FBFF6CF3FB7F8948091790122
:1002300090917A01A0917B01B0917C0126B5A89B99
:1002400005C02F3F19F00196A11DB11D3FBFBA2F68
:10025000A92F982F8827BC01CD01620F711D811D28
:10026000911D42E0660F771F881F991F4A95D1F7AD
:100270000895AF92BF92CF92DF92EF92FF920F93C9
:100280001F93CF93DF936C017B018B01040F151F2C
:10029000EB015E01AE18BF08C017D10759F0699194
:1002A000D601ED91FC910190F081E02DC6010995F8
:1002B000892B79F7C501DF91CF911F910F91FF90A5
:1002C000EF90DF90CF90BF90AF900895FC01538DD9
:1002D000448D252F30E0842F90E0821B930B541720
:1002E00010F0CF96089501970895FC01918D828DAD
:1002F000981761F0A28DAE0FBF2FB11D5D968C9146
:10030000928D9F5F9F73928F90E008958FEF9FEF84
:100310000895FC01918D828D981731F0828DE80F40
:10032000F11D858D90E008958FEF9FEF0895FC01FA
:10033000918D228D892F90E0805C9F4F821B9109C7
:100340008F73992708958DE791E00E94970121E02E
:10035000892B09F420E0822F089580E090E0892B1A
:1003600029F00E94A30181110C9400000895FC0162
:10037000A48DA80FB92FB11DA35ABF4F2C91848D06
:1003800090E001968F739927848FA689B7892C9363
:10039000A089B1898C91837080648C93938D848DB6
:1003A000981306C00288F389E02D80818F7D8083B9
:1003B0000895EF92FF920F931F93CF93DF93EC0179
:1003C00081E0888F9B8D8C8D98131AC0E889F989FC
:1003D000808185FF15C09FB7F894EE89FF896083FF
:1003E000E889F98980818370806480839FBF81E080
:1003F00090E0DF91CF911F910F91FF90EF900895C2
:10040000F62E0B8D10E00F5F1F4F0F731127E02E9C
:100410008C8D8E110CC00FB607FCFACFE889F989D4
:10042000808185FFF5CFCE010E94B701F1CFEB8D22
:10043000EC0FFD2FF11DE35AFF4FF0829FB7F894A8
:100440000B8FEA89FB8980818062CFCFCF93DF93C6
:10045000EC01888D8823B9F0AA89BB89E889F989DC
:100460008C9185FD03C0808186FD0DC00FB607FC11
:10047000F7CF8C9185FFF2CF808185FFEDCFCE0144
:100480000E94B701E9CFDF91CF910895FC0101905F
:100490000020E9F73197AF01481B590BBC018DE7EC
:1004A00091E00C9439011F920F920FB60F92112414
:1004B0002F933F938F939F93AF93BF938091750139
:1004C00090917601A0917701B091780130917401FB
:1004D00023E0230F2D3758F50196A11DB11D209360
:1004E00074018093750190937601A0937701B09386
:1004F00078018091790190917A01A0917B01B0916E
:100500007C010196A11DB11D8093790190937A0120
:10051000A0937B01B0937C01BF91AF919F918F918C
:100520003F912F910F900FBE0F901F90189526E8C6
:10053000230F0296A11DB11DD2CF1F920F920FB6AD
:100540000F9211242F933F934F935F936F937F9359
:100550008F939F93AF93BF93EF93FF938DE791E0BA
:100560000E94B701FF91EF91BF91AF919F918F9141
:100570007F916F915F914F913F912F910F900FBE9F
:100580000F901F9018951F920F920FB60F92112483
:100590002F938F939F93EF93FF93E0918D01F091B1
:1005A0008E018081E0919301F091940182FD1BC046
:1005B0009081809196018F5F8F73209197018217B0
:1005C00041F0E0919601F0E0E358FE4F958F809363
:1005D0009601FF91EF919F918F912F910F900FBEF8
:1005E0000F901F9018958081F4CFCF93DF93CDB7F4
:1005F000DEB7A1970FB6F894DEBF0FBECDBF7894DB
:1006000084B5826084BD84B5816084BD85B5826017
:1006100085BD85B5816085BD80916E0081608093C8
:100620006E00109281008091810082608093810031
:100630008091810081608093810080918000816041
:10064000809380008091B10084608093B10080919C
:10065000B00081608093B00080917A0084608093C4
:100660007A0080917A00826080937A0080917A008B
:10067000816080937A0080917A00806880937A000C
:100680001092C100E0918D01F0918E0182E0808393
:10069000E0918901F0918A011082E0918B01F09143
:1006A0008C018FEC808310929501E0919101F09183
:1006B000920186E08083E0918F01F091900180812A
:1006C00080618083E0918F01F0919001808188604A
:1006D0008083E0918F01F091900180818068808318
:1006E000E0918F01F091900180818F7D808361E0A6
:1006F0008DE00E94E30061E08BE00E94E30060E097
:1007000083E00E94E30029E8222E20E0322E3AE026
:10071000432E512C612C712C00E010E0E1EBF0E055
:100720008491EDE9F0E0F490F101E490EE2009F419
:1007300094C081110E948C00EE2DF0E0EE0FFF1F9F
:10074000E859FF4FA591B4918C91F82291E080E097
:1007500009F490E0909372018093730182E191E03B
:100760000E944602C0907201D09073010D2C000CC3
:10077000EE08FF08F7FE74C06DE28DE791E00E947D
:10078000D90122273327A9012C193D094E095F09F8
:1007900019A2CE0181967C01CA01B901A30192017F
:1007A0000E948104605DF70162937F01211531058C
:1007B0004105510589F7E114F10419F0C7010E94C0
:1007C000460284E291E00E9446028091720190917B
:1007D0007301892B09F05AC087E291E00E9446021A
:1007E00084E291E00E94460261E08DE00E94B50043
:1007F00061E08BE00E94B5000E9414016B017C0156
:1008000084EF882E99249394A12CB12C0E9414017A
:100810006C197D098E099F09683E73408105910519
:10082000A8F3F1E08F1A9108A108B10828EEC20ED2
:1008300023E0D21EE11CF11C81149104A104B10437
:1008400029F70115110509F469CF0E94A301882336
:1008500009F464CF0E94000061CF90E080E07ACF7D
:10086000A701960119A2CE0181967C01CA01B901A6
:10087000A30192010E948104605DF70162937F01F0
:10088000211531054105510589F795CF83E591E0A3
:100890000E94460284E291E00E94460260E08DE000
:1008A0000E94B50060E0A5CFEDE7F1E0138212826F
:1008B00088EE93E0A0E0B0E084839583A683B783BD
:1008C00084E091E09183808385EC90E09587848734
:1008D00084EC90E09787868780EC90E0918B808B0A
:1008E00081EC90E0938B828B82EC90E0958B848BF3
:1008F00086EC90E0978B868B118E128E138E148E61
:100900000895A1E21A2EAA1BBB1BFD010DC0AA1F50
:10091000BB1FEE1FFF1FA217B307E407F50720F068
:10092000A21BB30BE40BF50B661F771F881F991FE3
:100930001A9469F760957095809590959B01AC012C
:10094000BD01CF010895EE0FFF1F0590F491E02D3A
:060950000994F894FFCFAA
:1009560000000000D90139016601260297017501E0
:100966008901466C616D655F646574656374656471
:10097600203D20000D0A00466C616D65206465749B
:1009860065637465642E2E2E212054616B6520618B
:100996006374696F6E20696D6D6564696174656CF9
:1009A600792E004E6F20466C616D65206465746516
:1009B600637465642E205374617920636F6F6C2EA7
:0209C60000002F
:00000001FF
