:020000040000FA
:100000000C9483050C94AB050C94AB050C94AB05D8
:100010000C94AB050C94AB050C94AB050C94AB05A0
:100020000C94AB050C94AB050C94AB050C94AB0590
:100030000C94AB050C94AB050C94AB050C94AB0580
:100040000C94DE190C94AB050C944E1A0C94281ADF
:100050000C94AB050C94AB050C94AB050C94AB0560
:100060000C94801A0C94AB0507634236B79BD8A753
:100070001A39685618AEBAAB558C1D3CB7CC5763CD
:10008000BD6DEDFD753EF6177231BF000000803F7B
:1000900008000000BE922449123EABAAAA2ABECD97
:1000A000CCCC4C3E00000080BEABAAAAAA3E000009
:1000B0000000BF000000803F000000000008417801
:1000C000D3BB4387D1133D190E3CC3BD4282AD2B38
:1000D0003E68EC8276BED98FE1A93E4C80EFFFBE30
:1000E00001C4FF7F3F000000000000000000003E50
:1000F0005B4F5B3E3E6B4F6B3E1C3E7C3E1C183C98
:100100007E3C181C577D571C1C5E7F5E1C00183CF3
:100110001800FFE7C3E7FF0018241800FFE7DBE73C
:10012000FF30483A060E2629792926407F05050723
:10013000407F05253F5A3CE73C5A7F3E1C1C08087F
:100140001C1C3E7F14227F22145F5F005F5F060944
:100150007F017F006689956A606060606094A2FF9D
:10016000A29408047E040810207E201008082A1C8F
:1001700008081C2A08081E101010100C1E0C1E0C5B
:1001800030383E3830060E3E0E06000000000000FB
:10019000005F00000007000700147F147F14242A6A
:1001A0007F2A12231308646236495620500008073C
:1001B0000300001C2241000041221C002A1C7F1C5D
:1001C0002A08083E0808008070300008080808085F
:1001D000000060600020100804023E5149453E00C6
:1001E000427F400072494949462141494D33181424
:1001F000127F1027454545393C4A49493141211173
:1002000009073649494936464949291E0000140064
:100210000000403400000008142241141414141487
:10022000004122140802015909063E415D594E7CE5
:100230001211127C7F494949363E414141227F419A
:1002400041413E7F494949417F090909013E4141F8
:1002500051737F0808087F00417F41002040413FE3
:10026000017F081422417F404040407F021C027FF2
:100270007F0408107F3E4141413E7F090909063E47
:100280004151215E7F091929462649494932030116
:100290007F01033F4040403F1F2040201F3F403828
:1002A000403F631408146303047804036159494D03
:1002B00043007F4141410204081020004141417F39
:1002C00004020102044040404040000307080020AF
:1002D000545478407F2844443838444444283844AF
:1002E00044287F385454541800087E090218A4A4E6
:1002F0009C787F0804047800447D40002040403D05
:10030000007F1028440000417F40007C047804787E
:100310007C080404783844444438FC182424181811
:10032000242418FC7C08040408485454542404046D
:100330003F44243C4040207C1C2040201C3C40305A
:10034000403C44281028444C9090907C4464544C89
:1003500044000836410000007700000041360800E4
:1003600002010204023C2623263C1EA1A161123A8E
:100370004040207A385454555921555579412254DA
:10038000547842215554784020545579400C1E52DF
:100390007212395555555939545454593955545484
:1003A000580000457C410002457D420001457C40EB
:1003B0007D1211127DF0282528F07C54554500202F
:1003C00054547C547C0A097F4932494949323A44A1
:1003D00044443A324A4848303A4141217A3A42400C
:1003E0002078009DA0A07D3D4242423D3D404040DE
:1003F0003D3C24FF2424487E4943662B2FFC2F2BB1
:10040000FF0929F620C0887E090320545479410051
:1004100000447D413048484A32384040227A007AD0
:100420000A0A727D0D19317D2629292F28262929AE
:10043000292630484D4020380808080808080808D0
:10044000382F10C8ACBA2F102834FA00007B0000F7
:1004500008142A142222142A14085500550055AAFB
:1004600055AA55AAFF55FF55FF000000FF001010C8
:1004700010FF00141414FF001010FF00FF1010F004
:1004800010F0141414FC001414F700FF0000FF0017
:10049000FF1414F404FC141417101F10101F101F65
:1004A0001414141F00101010F0000000001F101092
:1004B00010101F10101010F010000000FF1010108E
:1004C000101010101010FF10000000FF140000FFAB
:1004D00000FF00001F10170000FC04F41414171094
:1004E000171414F404F40000FF00F7141414141487
:1004F0001414F700F7141414171410101F101F14FD
:100500001414F4141010F010F000001F101F00005D
:10051000001F14000000FC140000F010F01010FF89
:1005200010FF141414FF141010101F00000000F02E
:1005300010FFFFFFFFFFF0F0F0F0F0FFFFFF000003
:10054000000000FFFF0F0F0F0F0F3844443844FC2A
:100550004A4A4A347E02020606027E027E02635541
:100560004941633844443C04407E201E2006027EFC
:10057000020299A5E7A5991C2A492A1C4C7201720E
:100580004C304A4D4D303048784830BC625A463D78
:100590003E494949007E0101017E2A2A2A2A2A442D
:1005A000445F444440514A444040444A5140000062
:1005B000FF0103E080FF000008086B6B083612366D
:1005C0002436060F090F060000181800000010104E
:1005D000003040FF0101001F01011E00191D17120C
:1005E000003C3C3C3C0000000000000103070F1FE2
:1005F0003F7F0080C0E0F0F8FCFEDB40A4A62EAFF9
:100600002000A1C8D300408DAED580A800006000B6
:1006100000000000000000000000000000E00000FA
:10062000000000000000000000000001E0000000E9
:100630000000000000000000000001F000000000C9
:1006400000000000000000000003F00000000000B7
:10065000000000000000000007F0000000000000A3
:100660000000000000000007F8000000000000008B
:100670000000000000000FF800000003C0007E0032
:100680000001E0007F0FF800000003C000FE000042
:1006900001E000FFEFF800000003C000FE000001D1
:1006A000E000FFFFF800000003C000F00000000FB2
:1006B000007FFE7FC0000003C000F00000000F00BC
:1006C0003FFE7FF83FF1FBCFFCFEF3BC3DEFE01FA8
:1006D000FE7FFF7FFBFFDFFEFEFFBC3DEFE01FC69E
:1006E000FFFF7FFBFFDFFEFEFFBC3DEFE00FE3C738
:1006F000FE787BC3DE1EF0FFBC3DEF0007FF87FCEA
:10070000787BC3DE1EF0F83C3DEF0001FFFFF000F8
:100710007BC3C01EF0F03C3DEF0001F37FE03FFBE8
:10072000C3CFFEF0F03C3DEF0003E33F807FFBC30F
:10073000DFFEF0F03C3DEF0007E73C00787BC3DED6
:100740001EF0F03C3DEF0007FFBE00787BC3DE1ECD
:10075000F0F03C3DEF0007FFFE00787BC3DE1EF0AB
:10076000F03C3DEF000FFFFE007FFBFFDFFEF0F0EF
:100770003FFDEFE00FFFFF007FFBFFDFFEF0F03FEC
:10078000FDEFE00FF9FF003E79F9CF9EF0F01F3D3D
:10079000E7E01FF1FF000000000000000000000083
:1007A000001F80FF007FFFFFFFFFFFFFFFFFFFE055
:1007B0001C007F007FFFFFFFFEB46D888D18E000F6
:1007C000001F007FFFFFFFFE95AD7DB577E00000C5
:1007D0000F007FFFFFFFFEA5AD9D8D19E000000615
:1007E000007FFFFFFFFEB5ADEDB57EE0000000002D
:1007F00000018000000000000000000003800000F5
:100800000000000000000007C00000000000000021
:10081000000007C00000000000000000000FC00042
:1008200000000000000000001FE0000000000000C9
:100830000000001FE00000000000000000003FE09A
:100840000000000000000000003FF0000000000079
:10085000000000007FF0000000000000001FF87F93
:10086000F0000000000000003FFE7FF000000000EC
:100870000000003FFF7FF0000000000000001FFFAD
:10088000FBE0000000000000000FFFF9FFC00000C7
:10089000000000000FFFF9FFF80000000000000753
:1008A000FFF1FFFF00000000000003FC73FFFF806A
:1008B000000000000001FE3FFFFF8000000000007C
:1008C00000FF1E0FFF000000000000007FFE1FFC65
:1008D000000000000000003FFFFFF80000000000E3
:1008E00000000FDFFFE0000000000000001F19FF04
:1008F000C0000000000000003F3CFF0000000000BE
:100900000000007E7CF800000000000000007FFE78
:100910007C0000000000000000FFFFFC0000000061
:1009200000000000FFFFFE0000000000000000FFCC
:10093000FFFE0000000000000001FFEFFE000000CD
:100940000000000001FFCFFE0000000000000003D7
:10095000FF07FE0000000000000003FC07FE00008F
:10096000000000000003F003FE0000000000000093
:10097000018000FE000000000000000000007E007A
:100980000000000000000000003E00000000000029
:10099000000000000C000000000000078000FC00C8
:1009A0000003C0000000078001FC000003C000003D
:1009B00000078001FC000003C0000000078001E088
:1009C0000000001E000000078001E00000001E0083
:1009D0007FE3F79FF9FDE7787BDFC0FFF7FFBFFDFF
:1009E000FDFF787BDFC0FFF7FFBFFDFDFF787BDFFA
:1009F000C0F0F787BC3DE1FF787BDE00F0F787BCF5
:100A00003DE1F0787BDE0000F787803DE1E0787B18
:100A1000DE007FF7879FFDE1E0787BDE00FFF78750
:100A2000BFFDE1E0787BDE00F0F787BC3DE1E078D8
:100A30007BDE00F0F787BC3DE1E0787BDE00F0F77D
:100A400087BC3DE1E0787BDE00FFF7FFBFFDE1E022
:100A50007FFBDFC0FFF7FFBFFDE1E07FFBDFC07C76
:100A6000F3F39F3DE1E03E7BCFC0000000000000BB
:100A70000000000000FFFFFFFFFFFFFFFFFFFFC0C0
:100A8000FFFFFFFFFD68DB111A31C0FFFFFFFFFD15
:100A90002B5AFB6AEFC0FFFFFFFFFD4B5B3B1A3396
:100AA000C0FFFFFFFFFD6B5BDB6AFDC000000008BD
:100AB0000002010000030407000000000000000025
:100AC0002200FF210000000000250028002B00006C
:100AD000000000240027002A000404040404040485
:100AE00004020202020202030303030303010204DD
:100AF00008102040800102040810200102040810A0
:100B000020009F1B8A2011241FBECFEFD8E0DEBF3C
:100B1000CDBF11E0A0E0B1E0E2E2FCE402C005904C
:100B20000D92AC3CB107D9F723E0ACECB1E001C0C9
:100B30001D92AA39B207E1F715E0C2E8D5E004C07A
:100B40002197FE010E94BE24C138D107C9F70E9437
:100B5000261C0C9404260C9400000895089590E03F
:100B6000FC01E351F54F24918752954FFC0184918C
:100B7000882399F090E0880F991FFC01E153F54F0D
:100B8000A591B491FC01EB53F54F859194918FB7EA
:100B9000F894EC91E22BEC938FBF08950895FC013B
:100BA000538D448D252F30E0842F90E0821B930BD2
:100BB000541710F0CF96089501970895FC01918D78
:100BC000828D981761F0A28DAE0FBF2FB11D5D967B
:100BD0008C91928D9F5F9F73928F90E008958FEF1D
:100BE0009FEF0895FC01918D828D981731F0828DD1
:100BF000E80FF11D858D90E008958FEF9FEF089528
:100C0000FC01918D228D892F90E0805C9F4F821B8B
:100C100091098F7399270895FC01A48DA80FB92F0E
:100C2000B11DA35ABF4F2C91848D90E001968F7314
:100C30009927848FA689B7892C93A089B1898C9133
:100C4000837080648C93938D848D981306C0028882
:100C5000F389E02D80818F7D80830895EF92FF924C
:100C60000F931F93CF93DF93EC0181E0888F9B8DCF
:100C70008C8D98131AC0E889F989808185FF15C089
:100C80009FB7F894EE89FF896083E889F9898081AC
:100C90008370806480839FBF81E090E0DF91CF917B
:100CA0001F910F91FF90EF900895F62E0B8D10E09D
:100CB0000F5F1F4F0F731127E02E8C8D8E110CC00C
:100CC0000FB607FCFACFE889F989808185FFF5CF57
:100CD000CE010E940C06F1CFEB8DEC0FFD2FF11D24
:100CE000E35AFF4FF0829FB7F8940B8FEA89FB8994
:100CF00080818062CFCFCF93DF93EC01888D8823F2
:100D0000B9F0AA89BB89E889F9898C9185FD03C06E
:100D1000808186FD0DC00FB607FCF7CF8C9185FF53
:100D2000F2CF808185FFEDCFCE010E940C06E9CF86
:100D3000DF91CF91089584E992E00E94000621E0BE
:100D4000892B09F420E0822F089580E090E0892B20
:100D500029F00E949B0681110C940000089590E0F8
:100D6000FC01E455F54F2491FC01E351F54F34911A
:100D7000FC01E752F54FE491EE23C9F0222339F04C
:100D8000233001F1A8F4213019F1223029F1F0E0EB
:100D9000EE0FFF1FEB53F54FA591B4918FB7F89469
:100DA000EC91611126C030953E233C938FBF08958E
:100DB0002730A9F02830C9F0243049F7809180000D
:100DC0008F7D03C0809180008F7780938000DFCF7C
:100DD00084B58F7784BDDBCF84B58F7DFBCF8091C9
:100DE000B0008F778093B000D2CF8091B0008F7D1C
:100DF000F9CF3E2BDACF3FB7F89480911A02909149
:100E00001B02A0911C02B0911D0226B5A89B05C033
:100E10002F3F19F00196A11DB11D3FBFBA2FA92F79
:100E2000982F8827BC01CD01620F711D811D911D76
:100E300042E0660F771F881F991F4A95D1F70895E2
:100E40008F929F92AF92BF92CF92DF92EF92FF92DA
:100E50004B015C010E94FB066B017C010E94FB06BA
:100E60006C197D098E099F09683E734081059105C3
:100E7000A8F321E0821A9108A108B10888EEC80EF3
:100E800083E0D81EE11CF11C81149104A104B1047B
:100E900029F7FF90EF90DF90CF90BF90AF909F9099
:100EA0008F900895AF92BF92CF92DF92EF92FF9210
:100EB0000F931F93CF93DF936C017B018B01040F82
:100EC000151FEB015E01AE18BF08C017D10759F01E
:100ED0006991D601ED91FC910190F081E02DC60160
:100EE0000995892B79F7C501DF91CF911F910F915A
:100EF000FF90EF90DF90CF90BF90AF900895EF926A
:100F0000FF920F931F93CF93DF93EC01EC80FD8052
:100F10006E157F050CF070C057FF04C0240F351FFD
:100F200050E040E08E819F81FA01E20FF31F8E179F
:100F30009F071CF49C01241B350B121613060CF0A2
:100F40005BC0922F842F8695869586958E9DD001C5
:100F50008F9DB00D11246A0F7B1FAF8DB8A1A60F16
:100F6000B71F477049F188E0841B482F682F70E055
:100F7000FB01EE50FA4FE491281708F063C0621BA2
:100F800071092FEF30E002C0359527956A95E2F799
:100F9000E2230130110539F0B0F10230110561F59D
:100FA0008C91E82702C08C91E82BEC93941720F1E8
:100FB0002C813D81A20FB31FE92FE41BE83078F0AC
:100FC0000230110521F58E2F9C9190959C932C81D8
:100FD0003D81A20FB31F88508830B0F7E770EE2331
:100FE00059F0F0E0E651FA4FE49101301105F9F0C3
:100FF00010F10230110519F1DF91CF911F910F917E
:10100000FF90EF900895E0958C91E823CECF81E09A
:101010000115110509F480E081959E2F8C932C8198
:101020003D81A20FB31F98509830C0F7D7CF8C9155
:10103000E82BEC93E1CFE0958C91E823FACF8C91EB
:10104000E827F7CF0130110509F4ADCFE0F2023007
:10105000110509F4A5CFAE0DBF1DAECF0F931F93A1
:10106000CF93DF9377FF04C0260F371F70E060E057
:10107000DC011496CD91DC91FB01E20FF31FCE173A
:10108000DF071CF49E01261B370B121613064CF5C6
:10109000FA0157FD3796A3E0F595E795AA95E1F794
:1010A000EC9FD001ED9FB00DFC9FB00D11246A0F95
:1010B0007B1FDC015F96ED91FC91E60FF71F4770F7
:1010C000552781E090E001C0880F4A95EAF7482F44
:1010D0000130110559F0A8F02E0F3F1F0230110505
:1010E000E1F0DF91CF911F910F9108952E0F3F1FD7
:1010F000E217F307B1F38191DF011197842B8C93F1
:10110000F7CF80952E0F3F1FE217F30751F3919110
:10111000DF01119798239C93F7CFE217F30709F3A8
:101120008191DF01119784278C93F7CF0F931F9341
:10113000FA01DC0156964C9156974230E9F0433063
:10114000A1F1413061F514964D915C91DA01AE1B2D
:10115000BF0BFD01E21BF30B77FD0BC0DC01169604
:101160004D915C916417750724F4AB01BF010E9497
:101170002E081F910F91089514964D915C91DA01FC
:10118000A61BB70BBD0161507109DC0116964D918C
:101190005C91DA01AE1BBF0BFD01E21BF30B77FD87
:1011A000E8CFAF010E947F07E4CF16964D915C9186
:1011B000DA01A61BB70BBD0161507109CDCF0F93AA
:1011C0001F93FA01DC0156964C9156974230A9F0D4
:1011D000433091F1413019F514964D915C91DA014B
:1011E000AE1BBF0BFD013197F7FD04C0AB01BF0182
:1011F0000E947F071F910F91089514964D915C9165
:10120000DA01A61BB70BBD01DC0116964D915C916E
:10121000DA01AE1BBF0BFD013197621B730BF7FDAB
:10122000E9CFDC0116964D915C91E417F50714F7B0
:10123000AF010E942E08DECF16964D915C91DA0127
:10124000A61BB70BBD01621B730BCECFFC0177FD54
:1012500064C080859185681779070CF05EC057FDE2
:101260005CC082859385481759070CF056C0868963
:101270008230B1F0833029F1813041F4848195814D
:10128000841B950BAB01BC01615071092130310504
:1012900009F108F443C02230310509F463C0089510
:1012A00084819581DC01A61BB70BBD0161507109DA
:1012B00086819781DC01A41BB50BAD01415051091A
:1012C000E5CF86819781861B970BBA01AC0141500F
:1012D0005109DCCFCA0157FD0796A3E09595879584
:1012E000AA95E1F7A481B5818A9F90018B9F300D6B
:1012F0009A9F300D1124620F731F078CF0A1E02D0F
:10130000E60FF71F4770552721E030E001C0220F9C
:101310004A95EAF78081822B80830895CA0157FDA0
:10132000079633E0959587953A95E1F7A481B581C5
:101330008A9F90018B9F300D9A9F300D1124620F70
:10134000731F078CF0A1E02DE60FF71F477055279C
:1013500081E090E001C0880F4A95EAF7809590817E
:101360008923DACFCA0157FD079623E09595879523
:101370002A95E1F7A481B5818A9F90018B9F300D5A
:101380009A9F300D1124620F731F078CF0A1E02D7E
:10139000E60FF71F4770552721E030E001C0220F0C
:1013A0004A95EAF780818227B7CF08958EBD000065
:1013B0000DB407FEFDCF8EB508958CBD9DBD08957B
:1013C0000895FC016370668B848195812681378145
:1013D000613039F0633029F0918780873387228725
:1013E0000895318720879387828708952F923F92AF
:1013F0004F925F926F927F928F929F92AF92BF9225
:10140000CF92DF92EF92FF920F931F93CF93DF93D0
:10141000CDB7DEB76A970FB6F894DEBF0FBECDBF6B
:101420009A8F898F7A8369834A01D22E18870F8316
:101430003701BC2CDC0159962D913C915A9721150E
:10144000310509F015C118968D919C91199768176F
:1014500079070CF0D7C11A968D919C9148175907BE
:101460000CF0D0C14C2C512CB6E0CB9E600D711D00
:1014700011247C876B87161617060CF0C3C1EA2D62
:10148000F0E0FA87E98793E0EE0FFF1F9A95E1F706
:10149000F88BEF87CF01840F951F181619060CF0F3
:1014A000B1C1A98DBA8D58968C91811104C0BFEA43
:1014B000BD1508F4D394A98DBA8DED91FC911197C7
:1014C0000284F385E02DCD010995B5E0DB9EC001D6
:1014D0001124E981FA81FC83EB83312C212C9C01BE
:1014E00026513F4F388F2F8B4A2D50E05E8B4D8B0E
:1014F000EF89F88DE20DF31D44919E828D82D12CEF
:10150000C12C69817A81620D731D7A8B698B842F5E
:1015100090E09C8B8B8BE98DFA8DA081B18140FF8F
:1015200082C0F1E0BF126FC0AF126DC01C96ED918A
:10153000FC912F813885A4014C0D5D1D69897A8944
:10154000898D9A8D0995EB89FC89F595E7954E2F44
:101550005FEFC51AD50A6D817E818D899E89680FDE
:10156000791F7E836D8398E0C916D10481F6AFEFB1
:101570002A1A3A0AEB81FC81E40DF51DFC83EB830A
:10158000F5E02F16310409F0B3CF2F8138852615E9
:101590003705B9F0A98DBA8DED91FC91B1E0BB1280
:1015A00057C0AB1255C069817A816B5F7F4F00884D
:1015B000F189E02D830128E030E0A401898D9A8D26
:1015C0000995A98DBA8DED91FC9111970688F7893F
:1015D000E02DCD016A960FB6F894DEBF0FBECDBFE9
:1015E000DF91CF911F910F91FF90EF90DF90CF90FF
:1015F000BF90AF909F908F907F906F905F904F9033
:101600003F902F9009941E96ED91FC91EF80F88405
:1016100009851A8592014D815E816B817C81898D5E
:101620009A8D099590CF2F8138852615370509F4B5
:101630008ACF31E0B31207C0A31205C01C96ED910A
:10164000FC91930178CF1E96ED91FC917301E0CF50
:101650006B857C85641975090684F785E02D730117
:101660000F8518899201A401898D9A8D0995A9CFBA
:10167000F90134969491329745915491D91AB7E073
:10168000DB9E400D511D1124F901259134913C8BB5
:101690002B8BFA0125903490FA0132967490319692
:1016A0003491398B329664903196449041E04C15D8
:1016B00018F04A1508F07FC0662D062C000C770B39
:1016C0007C836B83842D042C000C990B9E838D836B
:1016D000A98DBA8DED91FC9111970284F385E02DCF
:1016E000CD010995512CD12CC12CEA2DF0E0FA87BF
:1016F000E9872B2D30E03C872B87A401440D511D39
:1017000047FC5A95588F4F8B69817A81660D711D00
:1017100067FC7A957E876D877989C71608F051CF67
:101720002C2D30E04D815E81420F531FA985BA8573
:101730004A9FC0014B9F900D5A9F900D1124FC01B0
:10174000E80DF91DF88BEF87852D612C4F89588D99
:10175000420F531F5E8B4D8B671408F050C044241A
:101760004394480E877041F4C1010196EB89FC89CE
:10177000E20DF31DD4901C01D7FE19C0A98DBA8DBE
:10178000ED91FC91662D70E0B1E0BB1219C0AB1277
:1017900017C02D853E85620F731F0484F585E02DEB
:1017A0002F8138854D895E89898D9A8D0995DD0C4B
:1017B0006394842DD1CF1E821D821C821B8288CF10
:1017C0004B815C81640F751FAB85BC856A9FC0012E
:1017D0006B9F900D7A9F900D112469817A81680F1B
:1017E000791F0684F785E02DEF80F88409851A8536
:1017F0009D014F855889898D9A8D0995D8CF570CB1
:10180000C3948ACF6A960FB6F894DEBF0FBECDBFE1
:10181000DF91CF911F910F91FF90EF90DF90CF90CC
:10182000BF90AF909F908F907F906F905F904F9000
:101830003F902F9008958F929F92AF92CF92EF9208
:10184000FF920F931F93CF93DF93EC01262F898D87
:101850009A8D009709F051C06A30D1F41D861C861C
:101860008D8948E0849F900111248E859F85820F89
:10187000931F9F878E8781E090E0DF91CF911F912A
:101880000F91FF90EF90CF90AF909F908F90089521
:101890006D3089F3CC88AD888F898823C1F08C8521
:1018A0009D8536E0C39E800D911D11244885598584
:1018B0004817590764F44E855F851D861C8638E0FD
:1018C000A39EC0011124840F951F9F878E87EA88ED
:1018D000FB88088919894E855F856C857D85CE01D9
:1018E0000E94F6092C898C859D8546E0249F800DF9
:1018F000911D11249D878C87BECF6A3069F41D86A7
:101900001C86FC013896E4912D898E859F85E29F87
:10191000800D911D1124ADCF6D3009F4ACCFFC01C9
:1019200034963491631708F4A6CF3296E491E61703
:1019300008F4A1CFFC01329685909490462F431B6A
:10194000342F47E0349F800C911C1124F40132960F
:1019500034913196E4913323A9F1EE2399F1CC88A7
:10196000F4013596E491AD884F89442301F10E2EA0
:10197000000CFF0BE30FF11DCE9EA001CF9E500D7A
:1019800011246C857D85460F571F688579856417FE
:1019900075076CF44E855F851D861C86FC013896A4
:1019A000E491AE9E400D511D11245F874E87EA8859
:1019B000FB88088919894E855F856C857D85CE01F8
:1019C0000E94F609F4013496E4912C898C859D855A
:1019D000E29F800D911D11248DCF6F927F928F9287
:1019E0009F92AF92BF92CF92DF92EF92FF920F93AE
:1019F0001F93CF93DF93EC016B015A01390148012A
:101A0000E881F9810284F385E02D0995E881F98167
:101A10000288F389E02D87019301A501B601CE016B
:101A20000995A501480D591D41505109E881F981D9
:101A30000288F389E02D9301B601CE010995E88172
:101A4000F9810088F189E02D9401A501B601CE014C
:101A50000995C60CD71CB60161507109E881F9815E
:101A60000088F189E02D9401A501CE010995E88156
:101A7000F9810688F789E02DCE01DF91CF911F9182
:101A80000F91FF90EF90DF90CF90BF90AF909F901D
:101A90008F907F906F9009946F927F928F929F9218
:101AA000AF92BF92CF92DF92EF92FF920F931F936C
:101AB000CF93DF935C01EB016A0149013801870193
:101AC000DC01ED91FC916217730719F56416750638
:101AD0002CF0962D872D3A01C92ED82E9601261965
:101AE00037092F5F3F4F048CF58DE02DA301BE0118
:101AF000C5010995DF91CF911F910F91FF90EF9054
:101B0000DF90CF90BF90AF909F908F907F906F901D
:101B100008954615570591F42617370724F0892DA7
:101B20004B01C22FD82F9E01281939092F5F3F4F33
:101B3000068CF78DE02DA601B401DACF0284F3857F
:101B4000E02D0995D501ED91FC910488F589E02DF2
:101B500083019401A601BE01C5010995D501ED914E
:101B6000FC910688F789E02DC501DF91CF911F9187
:101B70000F91FF90EF90DF90CF90BF90AF909F902C
:101B80008F907F906F900994EF92FF920F931F9325
:101B9000DC011A960D911C911B9718962D913C9182
:101BA0001997ED91FC9100A0F1A1E02D7B0150E08F
:101BB00040E070E060E009951F910F91FF90EF9079
:101BC00008954F925F926F927F928F929F92AF9201
:101BD000BF92CF92DF92EF92FF920F931F93CF931A
:101BE000DF936C012B015A0139014801DC01ED91B1
:101BF000FC910284F385E02D0995E201640C751CCB
:101C0000D601ED91FC91C615D7055CF40088F189E9
:101C1000E02D87019401A501BE01C6010995219619
:101C2000EFCF0688F789E02DC601DF91CF911F9194
:101C30000F91FF90EF90DF90CF90BF90AF909F906B
:101C40008F907F906F905F904F9009948F929F92AA
:101C5000AF92BF92CF92DF92EF92FF920F931F93BA
:101C6000CF93DF93EC015B014A016901E881F981BF
:101C70000284F385E02D099595012C0D3D1D215021
:101C80003109E881F9810488F589E02D7801840122
:101C9000A401B501CE010995E881F9810688F7898B
:101CA000E02DCE01DF91CF911F910F91FF90EF902A
:101CB000DF90CF90BF90AF909F908F9009948F92BC
:101CC0009F92AF92BF92CF92DF92EF92FF920F93CB
:101CD0001F93CF93DF93EC015B014A016901780107
:101CE000E881F9810284F385E02D0995C80CD91C9F
:101CF000860101501109E881F9810488F589E02DF8
:101D00009501A401B501CE010995E881F981068804
:101D1000F789E02DCE01DF91CF911F910F91FF90B8
:101D2000EF90DF90CF90BF90AF909F908F900994ED
:101D3000EF92FF920F931F93DC01ED91FC9100A0B5
:101D4000F1A1E02D09951F910F91FF90EF9008955B
:101D50000F931F93DC01ED91FC91068CF78DE02D24
:101D600009951F910F9108950F931F93DC01ED9139
:101D7000FC91048CF58DE02D09951F910F9108952C
:101D8000DC01ED91FC910084F185E02D09943F92F6
:101D90004F925F926F927F928F929F92AF92BF927B
:101DA000CF92DF92EF92FF920F931F93CF93DF9327
:101DB0005C017B014A016901390187E0680E711CF1
:101DC00093E0759467949A95E1F72B01400E511EAC
:101DD00010E000E0312CD0E0C0E0CE018770992700
:101DE000330C892B59F4FE0183E0F595E7958A952C
:101DF000E1F7E00FF11FE80DF91D349037FE0AC03E
:101E000021E030E0A701B5016C0F7D1F86E593E06E
:101E10000E94C00E2196CC16DD06F9F68FEFE81A67
:101E2000F80A060D171DE414F504A9F6DF91CF9109
:101E30001F910F91FF90EF90DF90CF90BF90AF90E8
:101E40009F908F907F906F905F904F903F900895FC
:101E50002F923F924F925F926F927F928F929F92BA
:101E6000AF92BF92CF92DF92EF92FF920F931F93A8
:101E7000CF93DF9300D000D000D0CDB7DEB73C01C8
:101E80006A013E832D83FC82EB825801A41AB50AB5
:101E9000B7FE03C0B194A194B1088D809E80861ACC
:101EA000970A97FE03C09194819491088A149B0429
:101EB0005CF0902F812F0D811E819D838E839C2D40
:101EC0008D2D6B01692F782F0C151D055CF09D8100
:101ED0008E817E836D83692F782F902F812F8601CD
:101EE000C92ED82E1601201A310A2B012D813E81D0
:101EF000421A530A57FE03C051944194510871018C
:101F000037FE03C03FEFE31AF30AF594E7948D819F
:101F10009E81861797075CF5A1E0B0E0BA83A9839C
:101F2000C016D1064CF1D301ED91FC910484F585E6
:101F3000E02D2B813C81A8016D817E818A149B0458
:101F40001CF04D815E81B801C3010995E418F508C4
:101F5000F7FE0AC02D813E8189819A81280F391FA1
:101F60003E832D83E20CF31C0F5F1F4FD9CF2FEF61
:101F70003FEF3A832983D4CF26960FB6F894DEBF7D
:101F80000FBECDBFDF91CF911F910F91FF90EF90CA
:101F9000DF90CF90BF90AF909F908F907F906F9089
:101FA0005F904F903F902F90089508952091ED01FC
:101FB000260F3327331F21323105ECF420916A02BA
:101FC000FC0190E080E0243069F082E00895A09167
:101FD000ED012191AC0143535E4FA40FB52FB11D0C
:101FE0002C930196861798F38091ED01680F60930A
:101FF000ED0180E0089581E0089510926A0281E089
:10200000809369021092440261E082E10E94AF066F
:1020100061E083E10E94AF06E9EBF0E080818E7F12
:10202000808380818D7F808388E48093B80085E4FD
:102030008093BC0008951092230210922202109205
:102040007102109293020E94FD0F8DEA95E0909329
:102050002102809320028EEA95E090931F028093E4
:102060001E020895CF93DF9391E09093CC018823D3
:10207000B9F0C091B800D091BA008091BC008A7BC1
:102080008093BC0060E082E10E94AF0660E083E1E3
:102090000E94AF060E94FD0FD093BA00C093B80013
:1020A000DF91CF9108958F929F92AF92BF92CF927E
:1020B000DF92EF92FF920F931F93CF93DF93D09114
:1020C0009302D13208F0D7C0182FC09192020E941B
:1020D000FB066B017C0180916A0281116BC082E07A
:1020E00080936A02109369028FEF809368021092C6
:1020F0006702D0936602A2E7B2E0E6E4F2E080E095
:10210000D81391C01092450280914502CC0FC82B84
:10211000C093450280914402813009F088C010923A
:1021200044020E94FB066B017C0180914502809372
:10213000BB0080916C0290916D02A0916E02B091F3
:102140006F02892B8A2B8B2BA1F00E94FB0600913A
:102150006C0210916D0220916E0230916F026C1929
:102160007D098E099F09061717072807390708F404
:1021700042C08091BC0083FDD8CF85EC8093BC0029
:102180000E94FB066B017C0180916A02823009F497
:1021900050C0809168028F3F09F46FC0809168023F
:1021A000803209F46CC080916802803309F469C000
:1021B00084E026C080916C0290916D02A0916E0225
:1021C000B0916F02892B8A2B8B2B09F484CF0E944C
:1021D000FB0680906C0290906D02A0906E02B09011
:1021E0006F026C197D098E099F0986169706A8064D
:1021F000B90608F070CF80916B020E94321085E022
:10220000109271021092930210927002DF91CF919E
:102210001F910F91FF90EF90DF90CF90BF90AF9004
:102220009F908F9008959D9191938F5F69CF85EED8
:10223000A5CF80916C0290916D02A0916E02B09139
:102240006F02892B8A2B8B2B09F49ECF0E94FB06F1
:1022500000916C0210916D0220916E0230916F021C
:102260006C197D098E099F0906171707280739077A
:1022700008F08ACFC0CF81E0C3CF80E0C1CF82E039
:10228000BFCF83E0BDCFDC0111968D919C91DC0125
:10229000ED91FC910280F381E02D41E050E0099541
:1022A000019729F481E00E94531091E0811190E0A0
:1022B000892F08950F931F93CF93DF93E1E0F0E010
:1022C0002115310511F0E2E0F0E0EC01AC81BD81B7
:1022D000AE17BF0738F1DA018B0189819A814881F5
:1022E00051E050937002409392021092710210924A
:1022F0009302232B41F4B801CE01DF91CF911F91BE
:102300000F910C9443111097B1F3FC01208131819E
:10231000F9012281338141E050E0BD01F9010995C5
:10232000019749F380E0DF91CF911F910F910895BC
:10233000E091230280912202E81730F4F0E0EC5D96
:10234000FD4F808190E008958FEF9FEF0895909169
:102350002302809122022FEF3FEF981748F4E92FD4
:10236000F0E0EC5DFD4F208130E09F5F9093230211
:10237000C90108958091220290912302891B990B33
:102380000895CF92DF92EF92FF920F931F93CF9316
:10239000DF937C01CB018A0120917002222389F016
:1023A000EB016B01C40ED51ECC15DD0569F06991FA
:1023B000D701ED91FC910190F081E02DC7010995C5
:1023C000F3CF642F0E94D60FC801DF91CF911F91E8
:1023D0000F91FF90EF90DF90CF900895CF93DF9310
:1023E0001F92CDB7DEB76983209170022223F9F0E6
:1023F00020919302203258F021E030E0FC01338339
:10240000228390E080E00F90DF91CF91089580913A
:102410007102E82FF0E0EE58FD4F998190838F5FB5
:10242000809371028093930281E090E0ECCF61E0B1
:10243000CE0101960E94D60FF7CF81E00C94531085
:10244000EF92FF920F931F93CF93DF937C01C62FE0
:102450008091730390917403009709F459C02091FF
:10246000770331E030937002209392021092710250
:1024700010929302DC01ED91FC910190F081E02D2E
:1024800060E009958701EE24E394F12CD1E0C1507E
:102490008091730390917403CF3F91F1B0E2EB16FA
:1024A000F104D8F00E941D1280917303909174037F
:1024B00020917703D09370022093920210927102C0
:1024C00010929302DC01ED91FC910190F081E02DDE
:1024D00060E00995EE24E394F12C809173039091D0
:1024E0007403F8016491DC01ED91FC910190F0819D
:1024F000E02D0995BFEFEB1AFB0A0F5F1F4FC7CF07
:10250000DF91CF911F910F91FF90EF900C941D12CE
:10251000E0918303F09184039081809189038095F9
:10252000892380838701C15008F438C0F801849161
:102530002091710330917203232B29F00E94D60958
:102540000F5F1F4FF0CF28E030E040E8E0917F03BD
:10255000F091800390918703582F5423D9F0508134
:10256000952B9083E0918103F091820390815091AB
:102570008803952B9083E0918103F0918203508131
:102580009091880390959523908346952150310929
:10259000E9F6D6CF508190959523E3CFDF91CF9187
:1025A0001F910F91FF90EF9008951F93CF93DF93AA
:1025B000EC018D8D9E8D009721F1162F29A131E020
:1025C0003093700220939202109271021092930243
:1025D000DC01ED91FC910190F081E02D60E0099526
:1025E0008D8D9E8DDC01ED91FC910190F081E02DAF
:1025F000612F09958D8D9E8DDF91CF911F910C9448
:102600001D12ADA5BEA59C918BA9809589238C93A5
:102610008B8D9C8D892B31F0862FDF91CF911F916F
:102620000C94D60928E030E080E8A9A5BAA599A9BC
:10263000462F4823C1F04C91942B9C93ABA5BCA58D
:102640009C914AA9942B9C93ABA5BCA54C919AA9AB
:10265000909594239C9386952150310931F7DF9111
:10266000CF911F9108954C9190959423E6CFDF92DE
:10267000EF92FF920F931F93CF93DF938091730399
:1026800090917403892B09F498C020918B033091A9
:102690008C0340918D0350918E0360E074E284EFCF
:1026A00090E00E946A242051310941095109569550
:1026B0004795379527952093B80065E080EC9AE020
:1026C0000E94201260915A03615086E593E00E94B7
:1026D000D51220915C0330915D03C901079697FDE7
:1026E000079633E0959587953A95E1F720915A033F
:1026F00030915B03829F8001839F100D929F100D8C
:102700001124C0917503D091760380917303909149
:1027100074030C0F1D1F009709F48FC020917703DD
:1027200031E0309370022093920210927102109265
:102730009302DC01ED91FC910190F081E02D60E4C9
:102740000995EE24E394F12CDD24D3948091730356
:10275000909174030C171D0709F446C0B0E2EB1604
:10276000F104D8F00E941D128091730390917403BC
:1027700020917703D09270022093920210927102FE
:1027800010929302DC01ED91FC910190F081E02D1B
:1027900060E40995EE24E394F12C80917303909109
:1027A00074036991DC01ED91FC910190F081E02DC1
:1027B0000995BFEFEB1AFB0AC9CF80917103909185
:1027C0007203892B31F080919403909195030E94BC
:1027D000DD09E0918503F0918603908180918A0361
:1027E00080958923808369CF0E941D128091730395
:1027F00090917403892B09F461C020918F0330916B
:102800009003409191035091920360E074E284EF51
:1028100090E00E946A2420513109410951095695DE
:102820004795379527952093B800DF91CF911F9159
:102830000F91FF90EF90DF900895E0918303F09166
:102840008403808190918903892B80830C171D0755
:1028500069F289912091710330917203232B19F051
:102860000E94D609F3CF28E030E040E8E0917F03F2
:10287000F091800390918703582F5423D9F0508111
:10288000952B9083E0918103F09182039081509188
:102890008803952B9083E0918103F091820350810E
:1028A0009091880390959523908346952150310906
:1028B000E9F6CCCF508190959523E3CFE091850345
:1028C000F0918603808190918A03892B8083ADCF1C
:1028D0001F93CF93DF93EC01162F8D8D9E8D892B47
:1028E000B1F12DA93EA94FA958AD60E074E284EF83
:1028F00090E00E946A2420513109410951095695FE
:102900004795379527952093B80066EA111167EA35
:10291000CE010E94D5128D8D9E8D892B41F129AD5E
:102920003AAD4BAD5CAD60E074E284EF90E00E94A4
:102930006A24205131094109510956954795379527
:1029400027952093B800DF91CF911F9108958B8D2B
:102950009C8D892B21F08EAD9FAD0E94DD09EFA5E6
:10296000F8A990818CA9809589238083CECFEFA58B
:10297000F8A980819CA9892B8083E5CFCF93DF9331
:10298000EC018B818823A9F089819A81288131E02B
:10299000309370022093920210927102109293026F
:1029A0000E941D1291E0811190E0892FDF91CF915B
:1029B00008950E941B1081E08B83CE010E94BE14FB
:1029C000982F8111E1CFF1CF90E080E008952F9210
:1029D0003F924F925F926F927F928F929F92AF92AF
:1029E000BF92CF92DF92EF92FF920F931F93CF93FC
:1029F000DF93DC011496ED91FC911597EF2B09F410
:102A000022C169012A01EC01888191E09093700252
:102A1000809392021092710210929302CD010E9453
:102A20004311782E882309F40EC1F12CE12C3324B4
:102A300033948C819D8186010E191F09801791079F
:102A400008F48C0128800E94FB064B015C018091F8
:102A50006A02811173C0602EB0E2B01710F480E2F8
:102A6000682E30926A0221E0C601801B910BE816A5
:102A7000F90608F420E020936902EFEFE093680282
:102A8000109267028FEF860D8093660230924502A6
:102A900080914502220C282A20924502809144020E
:102AA000813009F090C0109244020E94FB064B0155
:102AB0005C01809145028093BB0080916C029091F3
:102AC0006D02A0916E02B0916F02892B8A2B8B2B25
:102AD000A1F00E94FB0620916C0230916D024091A2
:102AE0006E0250916F02681979098A099B092617AD
:102AF00037074807590708F442C08091BC0083FD9E
:102B0000D8CFF5ECF093BC000E94FB064B015C01B2
:102B100080916A02813009F45AC08091670286155B
:102B200010F460906702A6E4B2E0E4E2F2E080E034
:102B3000861551F19D9191938F5FFACF80916C0230
:102B400090916D02A0916E02B0916F02892B8A2B39
:102B50008B2B09F47CCF0E94FB0620916C023091F4
:102B60006D0240916E0250916F02681979098A09CD
:102B70009B09261737074807590708F068CF809147
:102B80006B020E943210612C10922302609222028A
:102B90006016110609F057C042018E0C9F1C5401AB
:102BA000C501881999098017910798F589819A813B
:102BB000DC01ED91FC910284F385E02D0995F5018E
:102BC00081935F01EDCF85EE8093BC009DCF809116
:102BD0006C0290916D02A0916E02B0916F02892BF0
:102BE0008A2B8B2B09F494CF0E94FB0620916C0258
:102BF00030916D0240916E0250916F02681979090F
:102C00008A099B09261737074807590708F080CF1C
:102C1000B6CFE00EF11EEC14FD0408F40ACF872DA8
:102C2000DF91CF911F910F91FF90EF90DF90CF90A8
:102C3000BF90AF909F908F907F906F905F904F90DC
:102C40003F902F900895712CEACFCF93DF9300D05F
:102C50001F92CDB7DEB78B8322E030E0AE014F5F2D
:102C60005F4FBE016D5F7F4F8091310390913203C2
:102C70000E94E71489819A819827892798270F90C5
:102C80000F900F90DF91CF910895CF93DF9300D0F5
:102C9000CDB7DEB78EE28A8384EF898321E030E00E
:102CA000AE014F5F5F4FBE016E5F7F4F809131037A
:102CB000909132030E945A1165E070E080E090E04C
:102CC0000E94200786EF0E9425160F900F90DF913B
:102CD000CF9108954F925F926F927F928F929F92C1
:102CE000AF92BF92CF92DF92EF92FF921F93CF935A
:102CF000DF93CDB7DEB728970FB6F894DEBF0FBECF
:102D0000CDBF0E9445164C01B12CA12C80913303FC
:102D10008295880F880F807C8C5C8C8384EF8B83FA
:102D200021E030E0AE014D5F5F4FBE016C5F7F4F31
:102D300080913103909132030E945A1180913303A4
:102D400081117DC165E070E080E090E00E94200785
:102D500086EF0E942516B0E0A0E0CC24D82EE92E04
:102D6000FA2E88EF8A8321E030E0AE014F5F5F4F9B
:102D7000BE016E5F7F4F80913103909132030E94BC
:102D8000E7148981C82A10913303809148039091F8
:102D90004903A5019401281B390B41095109A09150
:102DA0004603B09147030E94AB242B013C01AFE0E6
:102DB0007594679457944794AA95D1F7609140030E
:102DC00070914103072E000C880B990BBBE0660F36
:102DD000771F881F991FBA95D1F720914203309130
:102DE0004303032E000C440B550B240D351D461DCB
:102DF000571D0E948C24420E531E641E751E20EA2D
:102E0000421A2FE0520A61087108A3019201C3011E
:102E1000B2010E945A244B015C018CE0B594A79446
:102E2000979487948A95D1F7A0913803B09139038C
:102E30000E94B6249B01AC019DE0559547953795BE
:102E400027959A95D1F72D833E834F835887A0917C
:102E50003A03B0913B03A50194010E94B6249C0162
:102E6000552737FD5095452F8D819E81AF81B885BF
:102E7000280F391F4A1F5B1F2E5F3F4F4F4F5F4F79
:102E800062E055954795379527956A95D1F7305863
:102E90004F4F5F4FA0914403B09145030E94AB2474
:102EA0009B01AC017FE056954795379527957A951C
:102EB000D1F72D833E834F83588788E090E0811BB4
:102EC000910904C0F694E794D794C7948A95D2F7F1
:102ED000A0913C03B0913D03A50194010E94B6244A
:102EE0004B015C01EBE0B594A79497948794EA9525
:102EF000D1F7A0913603B0913703A30192010E944C
:102F0000B624FBE09595879577956795FA95D1F767
:102F1000680D791D8A1D9B1D8090340390903503A8
:102F2000092C000CAA08BB08A2E0880C991CAA1C5A
:102F3000BB1CAA95D1F7680D791D8A1D9B1D012E1A
:102F400004C0660F771F881F991F0A94D2F76E5F1F
:102F50007F4F8F4F9F4F24E030E040E050E00E94D1
:102F60008C24D701C601821B930BA40BB50B9C01CB
:102F7000AD0160E573EC80E090E004C09695879524
:102F8000779567951A95D2F70E945A2497FD6AC0E3
:102F9000660F771F881F991F2D813E814F815885AD
:102FA0000E946A2469017A019927F7FC9A958F2D6E
:102FB0007E2D6D2D9B01AC010E945A249B01AC011A
:102FC000AEEDBBE00E94AB244B015C01A3E4B3EE89
:102FD000A70196010E94B924BC01992777FD90951D
:102FE000892F4501BB2497FCB094AB2C680D791D4B
:102FF0008A1D9B1D6153714F8F4F9F4F44E09595E4
:103000008795779567954A95D1F76C0D7D1D8E1D37
:103010009F1D28960FB6F894DEBF0FBECDBFDF917F
:10302000CF911F91FF90EF90DF90CF90BF90AF9026
:103030009F908F907F906F905F904F900895813018
:1030400029F468E070E080E090E080CE823029F4DE
:103050006EE070E080E090E079CE6AE170E080E0C0
:1030600090E074CE2D813E814F8158850E946A2464
:1030700069017A01CC0CDD1CEE1CFF1C95CF209160
:103080005C0330915D03C901079697FD079623E025
:10309000959587952A95E1F720915A0330915B0326
:1030A000829FA001839F500D929F500D112470E0CC
:1030B00060E080917503909176030C94FD250E9449
:1030C000F825FB0101900020E9F73197AF01461B7D
:1030D000570BDC01ED91FC910280F381E02D099406
:1030E0008F929F92AF92BF920F931F93CF93DF93D4
:1030F000CDB7DEB7A1970FB6F894DEBF0FBECDBF38
:1031000019A2423008F44AE08E010F5D1F4F842E51
:10311000912CB12CA12CA50194010E946A24E62FC8
:10312000B901CA01EA3004F5E05DD801EE938D01E2
:10313000232B242B252B79F790E080E0109729F0A2
:10314000BD0186E593E00E946118A1960FB6F89440
:10315000DEBF0FBECDBFDF91CF911F910F91BF900A
:10316000AF909F908F900895E95CDFCF4F925F9270
:103170006F927F928F929F92AF92BF92CF92DF9287
:10318000EF92FF920F931F93CF936B017C01742EEC
:10319000AC019B010E94202366E571E0811126C0ED
:1031A00046015701E894B7F82FEF3FEF4FE75FE78D
:1031B000C501B4010E94202381110CC02FEF3FEF05
:1031C0004FE75FE7C501B4010E9406216AE571E09F
:1031D000181664F02FEF3FEF4FE75FE4C701B60129
:1031E0000E945E221816ACF46EE571E086E593E06D
:1031F000CF911F910F91FF90EF90DF90CF90BF90F4
:10320000AF909F908F907F906F905F904F900C94B5
:1032100061182FEF3FEF4FE75FECC701B6010E9447
:10322000062187FDE1CF20E030E0A901C701B6010A
:103230000E94062110E000E087FF0AC06DE286E5EB
:1032400093E00E941B0C8C01F7FAF094F7F8F094CD
:10325000C0E060E070E080E09FE37C1641F020E099
:1032600030E040E251E40E940B21CF5FF6CFA7018E
:1032700096010E949A202B013C010E947D214B0166
:103280005C014AE00E9470187C01E00EF11ECC2324
:10329000C1F1C501B4010E94AC219B01AC01C30185
:1032A000B2010E9499204B015C016EE286E593E039
:1032B0000E941B0CE80EF91EC15018F120E030E00E
:1032C00040E251E4C501B4010E9463222B013C019C
:1032D0000E947D214B01B12CA12C4AE0C501B40113
:1032E0000E947018E80EF91EC501B4010E94AC21BD
:1032F0009B01AC01C301B2010E9499204B015C010A
:10330000DBCFC701CF911F910F91FF90EF90DF901E
:10331000CF90BF90AF909F908F907F906F905F9075
:103320004F9008950F931F93CF93DF93EC010E946A
:1033300061188C0162E671E0CE010E946118800F75
:10334000911FDF91CF911F910F91089585ED80938B
:10335000BC0080916C0290916D02A0916E02B091C0
:103360006F020796A11DB11D23E0B695A79597950D
:1033700087952A95D1F72091BC0024FD03C01092B7
:103380006A02089540916C0250916D0260916E0244
:1033900070916F02452B462B472B69F30097A105CF
:1033A000B10541F02AE22A95F1F700C00197A10981
:1033B000B109E1CF80916B020C9432101F920F92F1
:1033C0000FB60F9211242F933F938F939F93AF9338
:1033D000BF938091160290911702A0911802B091AC
:1033E00019023091150223E0230F2D3758F501966D
:1033F000A11DB11D20931502809316029093170210
:10340000A0931802B093190280911A0290911B02A6
:10341000A0911C02B0911D020196A11DB11D8093C7
:103420001A0290931B02A0931C02B0931D02BF913D
:10343000AF919F918F913F912F910F900FBE0F9061
:103440001F90189526E8230F0296A11DB11DD2CF1B
:103450001F920F920FB60F9211242F933F934F9309
:103460005F936F937F938F939F93AF93BF93EF93EC
:10347000FF9384E992E00E940C06FF91EF91BF91C7
:10348000AF919F918F917F916F915F914F913F91FC
:103490002F910F900FBE0F901F9018951F920F92B3
:1034A0000FB60F9211242F938F939F93EF93FF9357
:1034B000E091A402F091A5028081E091AA02F0912E
:1034C000AB0282FD1BC090818091AD028F5F8F7334
:1034D0002091AE02821741F0E091AD02F0E0EC568F
:1034E000FD4F958F8093AD02FF91EF919F918F914A
:1034F0002F910F900FBE0F901F9018958081F4CFE1
:103500001F920F920FB60F9211242F933F934F9358
:103510005F936F937F938F939F93AF93BF93EF933B
:10352000FF938091B900887F803609F44AC0F0F596
:10353000883209F4A7C018F5803109F49BC0B8F4AB
:10354000882309F4F9C0883009F494C0FF91EF9101
:10355000BF91AF919F918F917F916F915F914F91AB
:103560003F912F910F900FBE0F901F9018958831AB
:1035700009F488C0803251F78093680214C0803407
:1035800009F49DC040F48033B9F38833F9F6809391
:10359000680285ECB0C0803509F485C0883509F42F
:1035A00096C0883499F60E94A619D0CF883909F4BC
:1035B0008CC038F5883729F050F4883611F0803700
:1035C00029F683E080936A0210920F0257C0883870
:1035D00009F47BC0803919F0803809F0B7CF8091A9
:1035E0000F02803208F071C0E0910F0281E08E0F6F
:1035F00080930F028091BB00F0E0E151FE4F808389
:103600003DC0803B39F0E0F4803A09F479C0883A53
:1036100009F09CCF84E080936A021092EE01109230
:10362000ED01E0912002F091210209958091ED01D8
:1036300081110FC081E08093ED011092CD0109C08E
:10364000803C09F4A6CF883C09F4A3CF883B09F05D
:103650007DCFE091EE0181E08E0F8093EE01F0E0EE
:10366000E353FE4F80818093BB009091EE018091E7
:10367000ED0129C0809145028093BB0085EC8093C9
:10368000BC0064CF9091670280916602981758F54C
:10369000E091670281E08E0F80936702F0E0EA5BC1
:1036A000FD4F8081E9CFE091670281E08E0F80932A
:1036B00067028091BB00F0E0EA5BFD4F8083909150
:1036C0006702809166029817C8F285E8D8CFE0912A
:1036D000670281E08E0F809367028091BB00F0E06B
:1036E000EA5BFD4F80838091690281115CCF81E0AC
:1036F0008093440284EA8093BC0010926A0226CF31
:1037000085EC8093BC0010926A0280910F02803297
:1037100030F4E0910F02F0E0E151FE4F1082609131
:103720000F0270E0E0911E02F0911F028FEE91E017
:10373000099510920F020ACF1092680234CFE4E983
:10374000F2E01382128248EE53E060E070E04483BE
:103750005583668377838AE091E09183808385EC4B
:1037600090E09587848784EC90E09787868780EC4B
:1037700090E0918B808B81EC90E0938B828B82EC3C
:1037800090E0958B848B86EC90E0978B868B118EE6
:10379000128E138E148EAAE4B3E013961C921E921E
:1037A000129714964D935D936D937C9317978CE1CC
:1037B00091E011969C938E93E6E5F3E013821282DA
:1037C00020E830E03583248380E490E0978386838B
:1037D0003187208793878287168A158614861786F5
:1037E000168681E0858B848B2FEF3FEF338B228B06
:1037F000318B208B878B108E128E118E8EE291E092
:1038000091838083148E138EB68FA58F10A2178E8E
:103810008FEF84A385A386A387A380A780E89AE17E
:10382000A6E0B0E085AB96ABA7ABB0AF80EA96E878
:10383000A1E0B0E081AF92AFA3AFB4AF80E586AFB7
:1038400017AE10923203109231030895CF93DF9395
:1038500000D0CDB7DEB7789484B5826084BD84B5DE
:10386000816084BD85B5826085BD85B5816085BD7B
:1038700080916E00816080936E0010928100809133
:1038800081008260809381008091810081608093BB
:103890008100809180008160809380008091B100E0
:1038A00084608093B1008091B00081608093B0000B
:1038B00080917A00846080937A0080917A0082609F
:1038C00080937A0080917A00816080937A00809161
:1038D0007A00806880937A001092C100809175030D
:1038E00090917603892B11F10E943F1820915C037F
:1038F00030915D0380915A0390915B032132310531
:103900000CF028C2B9016052710977FF02C06F5FE5
:103910007F4F759567958357910997FD019600E252
:1039200010E023E730E04CE056E027C220915C0332
:1039300030915D03C901079697FD0796B3E0959511
:103940008795BA95E1F720915A0330915B03AC015A
:10395000429FC001439F900D529F900D11240E94E1
:10396000D3249093760380937503892B09F0BCCF01
:1039700083E0809333038091310390913203009769
:1039800011F00E946F2586E090E00E94D3248C0104
:1039900087E7F80180838AE493E09283818313822E
:1039A00080E290E095838483109332030093310387
:1039B0000E941B1081E0F8018383C8010E94BE149D
:1039C000882309F4A0C380ED8A8321E030E0AE01B2
:1039D0004F5F5F4FBE016E5F7F4F809131039091CB
:1039E00032030E94E7148981853509F08CC38AEA85
:1039F0000E94251690933503809334038CEA0E942D
:103A0000251690933703809336038EEA0E9425167D
:103A1000909339038093380380EB0E94251690938E
:103A200045038093440382EB0E942516909347033D
:103A30008093460384EB0E9425169093490380935C
:103A4000480386EB0E94251690933B0380933A032C
:103A500088EB0E94251690933D0380933C038AEBEC
:103A60000E94251690933F0380933E038CEB0E94A7
:103A7000251690934103809340038EEB0E942516F8
:103A8000909343038093420301E010E045E0242E2D
:103A9000312C5EE1E52EF12C68E2C62ED12C72E3CA
:103AA000A72EB12CE0E08E2EE0E09E2E0E943F1863
:103AB000F1E0F0936A03F0936B03109369030093B2
:103AC00068031093670300936603109263031092D8
:103AD0006203309265032092640369E971E086E530
:103AE00093E00E946118109263031092620343E115
:103AF00050E0509365034093640360EA71E086E50B
:103B000093E00E9461180E9445169C0150E040E03D
:103B10008091480390914903281B390B41095109B1
:103B2000A0914603B09147030E94AB242B013C01B6
:103B30008FE075946794579447948A95D1F7609174
:103B4000400370914103072E000C880B990B2BE06A
:103B5000660F771F881F991F2A95D1F7209142037E
:103B600030914303032E000C440B550B240D351DDF
:103B7000461D571D0E948C24CA01B901640D751D94
:103B8000861D971D685F7F4F8F4F9F4F34E095953F
:103B90008795779567953A95D1F70E94AE2120E0F9
:103BA00030E040E251E40E940B2141E00E94B6184F
:103BB00063EA71E086E593E00E9492191092630334
:103BC00010926203F0926503E092640366EA71E08A
:103BD00086E593E00E9461180E946A160E94AE2159
:103BE00020E030E048EC52E40E940B2141E00E94CA
:103BF000B61869EA71E086E593E00E949219109286
:103C0000630310926203D0926503C09264036DEA6D
:103C100071E086E593E00E9461180E946A160E9496
:103C2000AE2120E03EE346EC57E40E940B2121E068
:103C30003EED42E45EE30E94D0229B01AC0160E0D5
:103C400070E080E89FE30E94992020E03AE24DE294
:103C500057E40E94632241E00E94B61860EB71E0D5
:103C600086E593E00E94921960E777E180E090E0BA
:103C70000E9420070E9437130E946A160E94AE21FC
:103C800020E030E048EC52E40E940B212AE939E9B7
:103C90004AEC52E40E949920609311027093120240
:103CA00080931302909314021092630310926203A4
:103CB000B0926503A092640320E030E040E85EE348
:103CC0000E945E22181634F462EB71E086E593E000
:103CD0000E94611820E030E040E85EE3609111024C
:103CE0007091120280911302909114020E94062199
:103CF000181634F068EB71E086E593E00E946118D5
:103D000020E030E040E85EEB609111027091120219
:103D100080911302909114020E94062187FF06C031
:103D200065EC71E086E593E00E9461180E9437130C
:103D300060ED77E080E090E00E942007811491041C
:103D400009F4B4CE0E949B06882309F4AFCE0E94EA
:103D50000000ACCEB9016054710977FF02C06F5FFB
:103D60007F4F759567958255910997FD019600E4FF
:103D700010E022E530E04CEE57E0959587950E94E3
:103D8000C70E82E08093780380917303909174034F
:103D9000892B09F4CAC08CE3809377030E941B101F
:103DA00080917E0387FD1DC00E94AF0561E0809178
:103DB0007E030E94AF0661E070E080E090E00E9428
:103DC000200760E080917E030E94AF066AE070E009
:103DD00080E090E00E94200761E080917E030E94D5
:103DE000AF068091730390917403892B09F454C139
:103DF00020918B0330918C0340918D0350918E0361
:103E000060E074E284EF90E00E946A24205131095E
:103E10004109510956954795379527952093B80044
:103E200064E088E096E00E94201260915C0361509B
:103E300086E593E00E94D51264E084E096E00E945B
:103E400020128091780364E1813009F460E186E515
:103E500093E00E94D51264E080E096E00E94201278
:103E60008FE88093930380915A0390915B0380388D
:103E7000910509F02AC180915C0390915D03803423
:103E8000910509F032C180917803813009F41BC19A
:103E90008FEC8093930312E16AED86E593E00E9434
:103EA000D512612F86E593E00E94D51261E886E580
:103EB00093E00E94D5126091930386E593E00E94FF
:103EC000D51269ED86E593E00E94D51280917803C2
:103ED00061EF813009F462E286E593E00E94D51239
:103EE00066E08AEF95E00E94201280917303909122
:103EF0007403892B09F4FDC020918F033091900346
:103F0000409191035091920360E074E284EF90E05D
:103F10000E946A242051310941095109569547955B
:103F2000379527952093B80023CD80917C030E947C
:103F3000AF0580917D030E94AF0580917C03082E20
:103F4000000C990BFC01E752F54FE491F0E0EE0F05
:103F5000FF1FEB53F54F2591349130938403209349
:103F60008303FC01E351F54FE491E09389038091D1
:103F70007D03082E000C990BFC01E752F54FE491EC
:103F8000F0E0EE0FFF1FEB53F54FA591B491B09306
:103F90008603A0938503FC01E351F54FE491E09380
:103FA0008A038C91E82BEC938091710390917203BA
:103FB000892B89F11FB7F89480911002811124C0D8
:103FC000E3EEFAE08491E7EFFAE09491E82FF0E075
:103FD000EE0FFF1FE153F54FA591B491EC91E9234A
:103FE00021F461E08AE00E94AF068AE00E94AF05FA
:103FF0008CB580618CBD8CB580648CBD8DE00E94D9
:10400000AF058BE00E94AF05809110028F5F809317
:1040100010021FBFC5CE80917A030E94AF05809128
:104020007B030E94AF0580917A03082E000C990B48
:10403000FC01E752F54FE491F0E0EE0FFF1FEB5368
:10404000F54F259134913093800320937F03FC0139
:10405000E351F54FE491E093870380917B03082EB1
:10406000000C990BFC01E752F54FE491F0E0EE0FE4
:10407000FF1FEB53F54FA591B491B0938203A0932A
:104080008103FC01E351F54FE491E09388038C91A7
:10409000E095E823EC9384CE8091710390917203B4
:1040A000892B31F080919403909195030E94DD0952
:1040B000E0918503F0918603908180918A03809539
:1040C00089238083ADCE8FE9E4CE8036910569F4F3
:1040D00080915C0390915D03409739F4809178035F
:1040E000813029F08FEA8093930312E0D5CE80E1EE
:1040F000FACFE0918503F0918603808190918A0345
:10410000892B808335CC65E671E084E992E00E94DA
:104110009219FFCF8EE291E090935703809356035C
:104120008091750390917603009711F00C946F25A0
:1041300008955058BB27AA270E94B1200C9424222E
:104140000E94162238F00E941D2220F039F49F3F71
:1041500019F426F40C9413220EF4E095E7FB0C946A
:104160000D22E92F0E94352258F3BA176207730710
:104170008407950720F079F4A6F50C9457220EF4E5
:10418000E0950B2EBA2FA02D0B01B90190010C0167
:10419000CA01A0011124FF27591B99F0593F50F47F
:1041A000503E68F11A16F040A22F232F342F4427D7
:1041B000585FF3CF469537952795A795F0405395CF
:1041C000C9F77EF41F16BA0B620B730B840BBAF09F
:1041D0009150A1F0FF0FBB1F661F771F881FC2F70A
:1041E0000EC0BA0F621F731F841F48F4879577951E
:1041F0006795B795F7959E3F08F0B0CF9395880FD8
:1042000008F09927EE0F9795879508950E94E92168
:1042100008F481E008950E941F210C9424220E943A
:104220001D2258F00E94162240F029F45F3F29F029
:104230000C940D2251110C9458220C9413220E94BC
:10424000352268F39923B1F3552391F3951B550B50
:10425000BB27AA2762177307840738F09F5F5F4F59
:10426000220F331F441FAA1FA9F335D00E2E3AF098
:10427000E0E832D091505040E695001CCAF72BD0B0
:10428000FE2F29D0660F771F881FBB1F2617370701
:104290004807AB07B0E809F0BB0B802DBF01FF2733
:1042A00093585F4F3AF09E3F510578F00C940D22E1
:1042B0000C9458225F3FE4F3983ED4F386957795AB
:1042C0006795B795F7959F5FC9F7880F911D9695EC
:1042D000879597F90895E1E0660F771F881FBB1F48
:1042E000621773078407BA0720F0621B730B840BF5
:1042F000BA0BEE1F88F7E09508950E943D2288F0E2
:104300009F5798F0B92F9927B751B0F0E1F0660F99
:10431000771F881F991F1AF0BA95C9F714C0B130DA
:1043200091F00E945722B1E008950C945722672F14
:10433000782F8827B85F39F0B93FCCF38695779509
:104340006795B395D9F73EF49095809570956195F2
:104350007F4F8F4F9F4F0895E89409C097FB3EF41D
:1043600090958095709561957F4F8F4F9F4F9923C2
:10437000A9F0F92F96E9BB279395F6958795779540
:104380006795B795F111F8CFFAF4BB0F11F460FF00
:104390001BC06F5F7F4F8F4F9F4F16C0882311F058
:1043A00096E911C0772321F09EE8872F762F05C06C
:1043B000662371F096E8862F70E060E02AF09A9507
:1043C000660F771F881FDAF7880F9695879597F9FC
:1043D0000895990F0008550FAA0BE0E8FEEF161696
:1043E0001706E807F907C0F012161306E407F507E9
:1043F00098F0621B730B840B950B39F40A2661F05D
:10440000232B242B252B21F408950A2609F4A140FF
:10441000A6958FEF811D811D089597F99F6780E80C
:1044200070E060E008959FEF80EC089500240A9406
:104430001616170618060906089500240A9412167F
:104440001306140605060895092E0394000C11F4B2
:10445000882352F0BB0F40F4BF2B11F460FF04C05F
:104460006F5F7F4F8F4F9F4F089557FD9058440FB8
:10447000551F59F05F3F71F04795880F97FB991FC3
:1044800061F09F3F79F08795089512161306140680
:10449000551FF2CF4695F1DF08C01616170618060D
:1044A000991FF1CF86957105610508940895E894E8
:1044B000BB2766277727CB0197F908950E94E9214A
:1044C00008F48FEF08950E9476220C9424220E9413
:1044D000162238F00E941D2220F0952311F00C9432
:1044E0000D220C94132211240C9458220E94352280
:1044F00070F3959FC1F3950F50E0551F629FF00137
:10450000729FBB27F00DB11D639FAA27F00DB11D4F
:10451000AA1F649F6627B00DA11D661F829F2227D8
:10452000B00DA11D621F739FB00DA11D621F839F5F
:10453000A00D611D221F749F3327A00D611D231F35
:10454000849F600D211D822F762F6A2F11249F5783
:1045500050409AF0F1F088234AF0EE0FFF1FBB1F86
:10456000661F771F881F91505040A9F79E3F510545
:1045700080F00C940D220C9458225F3FE4F3983E97
:10458000D4F3869577956795B795F795E7959F5FEF
:10459000C1F7FE2B880F911D9695879597F9089581
:1045A000FA01EE0FFF1F309621053105A1F16115CB
:1045B000710561F48038BFE39B0749F16894903836
:1045C000810561F08038BFEF9B0741F099234AF5E0
:1045D000FF3FE1053105210519F1E8940894E795BD
:1045E000D901AA2329F4AB2FBE2FF85FD0F310C056
:1045F000FF5F70F4A695E0F7F73950F019F0FF3A35
:1046000038F49F779F930DD00F9007FC9058089532
:1046100046F00C94132260E070E080E89FE3089578
:104620004FE79F775F934F933F932F930E94D02341
:104630002F913F914F915F910E9463220C942D2303
:104640000E94E921880B990B089529F416F00C9427
:104650000D220C9457220C9413220E943D22A8F3A1
:104660009638A0F707F80F92E8942BE33AEA48EB64
:104670005FE70E9479220F920F920F924DB75EB7BB
:104680000F920E941824E8E6F0E00E945F234F9109
:104690005F91EF91FF91E595EE1FFF1F49F0FE57E7
:1046A000E0684427EE0F441FFA95E1F74195550B5A
:1046B0000E9492230F9007FE0C9486230895DF93A7
:1046C000CF931F930F93FF92EF92DF927B018C01A8
:1046D000689406C0DA2EEF010E947622FE01E8946B
:1046E000A5912591359145915591A6F3EF010E9431
:1046F000B120FE019701A801DA9469F7DF90EF90ED
:10470000FF900F911F91CF91DF9108959B01AC0114
:1047100060E070E080E89FE30C940B210C940D2284
:104720000C944C240E943D22D8F39923C9F3940F92
:10473000511DA3F39150504094F059F0882332F06A
:10474000660F771F881F91505040C1F79E3F51055B
:104750002CF7880F911D9695879597F908955F3FDF
:10476000ACF0983E9CF0BB27869577956795B795FA
:1047700008F4B1609395C1F7BB0F58F711F460FFCF
:10478000E8CF6F5F7F4F8F4F9F4FE3CF0C9458223E
:1047900016F00C944C240C94132268940C940D2263
:1047A0000E943D22A8F39923C1F3AEF3DF93CF9388
:1047B0001F930F93FF92C92FDD2788232AF021979B
:1047C000660F771F881FDAF720E030E040E85FEBE4
:1047D0009FE3883920F0803E38F021968F770E9441
:1047E0009A20E0E9F0E004C00E949A20EDEBF0E0AE
:1047F0000E945F238B01BE01EC01FB2E6F577109F4
:104800007595771F880B990B0E94AE2128E132E73E
:1048100041E35FE30E947622AF2D9801AE01FF9045
:104820000F911F91CF91DF910E94B1200C9424220F
:10483000FA01DC01AA0FBB1F9B01AC01BF5728F492
:10484000222733274427507820C0B75190F4AB2F4C
:104850000024469537952795011CA395D2F3002097
:1048600071F0220F331F441FB395DAF30ED00C946E
:10487000992061307105A0E88A07B94630F49B01A0
:10488000AC016627772788279078309621F020831F
:1048900031834283538308959F3F31F0915020F438
:1048A000879577956795B795880F911D969587950C
:1048B00097F90895DB018F939F930E94AB24BF91DA
:1048C000AF91A29F800D911DA39F900DB29F900D5F
:1048D00011240895A1E21A2EAA1BBB1BFD010DC0D5
:1048E000AA1FBB1FEE1FFF1FA217B307E407F507A0
:1048F00020F0A21BB30BE40BF50B661F771F881F7C
:10490000991F1A9469F760957095809590959B0111
:10491000AC01BD01CF010895052E97FB1EF4009454
:104920000E94A32457FD07D00E946A2407FC03D0ED
:104930004EF40C94A32450954095309521953F4F0B
:104940004F4F5F4F089590958095709561957F4F7B
:104950008F4F9F4F08950E94C424A59F900DB49F30
:10496000900DA49F800D911D11240895B7FF0C9404
:10497000AB240E94AB24821B930B0895EE0FFF1F04
:104980000590F491E02D0994A29FB001B39FC0015E
:10499000A39F700D811D1124911DB29F700D811D6B
:1049A0001124911D08950F931F93CF93DF938230AD
:1049B000910510F482E090E0E0919803F091990362
:1049C00030E020E0B0E0A0E0309799F42115310507
:1049D00009F44AC0281B390B24303105D8F58A81E7
:1049E0009B816115710589F1FB0193838283FE012F
:1049F00011C0408151810281138148175907E0F0AD
:104A00004817590799F4109761F012960C93129772
:104A100013961C933296CF01DF91CF911F910F9186
:104A200008950093980310939903F4CF211531054D
:104A300051F04217530738F0A901DB019A01BD017B
:104A4000DF01F801C1CFEF01F9CF90939903809373
:104A50009803CDCFFE01E20FF31F81939193225073
:104A6000310939832883D7CF20919603309197035A
:104A7000232B41F4209102013091030130939703DD
:104A800020939603209100013091010121153105F9
:104A900041F42DB73EB74091040150910501241B0C
:104AA000350BE0919603F0919703E217F307A0F41A
:104AB0002E1B3F0B2817390778F0AC014E5F5F4F74
:104AC0002417350748F04E0F5F1F5093970340930C
:104AD0009603819391939FCFF0E0E0E09CCFCF933A
:104AE000DF930097E9F0FC01329713821282A091C4
:104AF0009803B0919903ED0130E020E01097A1F404
:104B000020813181820F931F20919603309197036A
:104B10002817390709F061C0F0939703E0939603D3
:104B2000DF91CF910895EA01CE17DF07E8F54A81BA
:104B30005B819E0141155105B1F7E901FB83EA83D1
:104B400049915991C40FD51FEC17FD0761F480817D
:104B500091810296840F951FE90199838883828150
:104B600093819B838A83F0E0E0E012968D919C9183
:104B700013970097B9F52D913C911197CD010296AD
:104B8000820F931F209196033091970328173907BE
:104B900039F6309751F51092990310929803B0931B
:104BA0009703A0939603BCCFD383C28340815181E6
:104BB000840F951FC817D90761F44E5F5F4F888136
:104BC0009981480F591F518340838A819B81938328
:104BD00082832115310509F0B0CFF0939903E0935A
:104BE00098039ECFFD01DC01C0CF13821282D7CF84
:104BF00081E090E0F8940C940426DC0101C06D93F0
:104C000041505040E0F7089515E0C2E8D5E004C0F7
:104C1000FE010E94BE242196C338D107C9F7F8943B
:104C2000FFCF00009A038000000000002E0652070C
:104C3000CF057B060006DE05F20500000000EE1140
:104C4000C111E414CE05BA11A7119811000000009B
:104C50001B0C5207E414D50F2609CE05C00E980E82
:104C6000B40EA80E280FCE05E10968149608DF08D7
:104C7000E10DC40D4C0DED0C6E616E00696E6600A9
:104C80006F7666000D0A00436F756C64206E6F745A
:104C90002066696E6420612076616C696420424DF3
:104CA000503038352073656E736F722C20636865E1
:104CB000636B20776972696E672100424D5031380D
:104CC0003000543D002A4300503D006850610041CF
:104CD0003D006D0053554E4E590053554E4E592FC1
:0E4CE000434C4F554459005241494E59000073
:107E0000112484B714BE81FFF0D085E080938100F7
:107E100082E08093C00088E18093C10086E0809377
:107E2000C20080E18093C4008EE0C9D0259A86E02C
:107E300020E33CEF91E0309385002093840096BBD3
:107E4000B09BFECF1D9AA8958150A9F7CC24DD24C4
:107E500088248394B5E0AB2EA1E19A2EF3E0BF2EE7
:107E6000A2D0813461F49FD0082FAFD0023811F036
:107E7000013811F484E001C083E08DD089C08234E0
:107E800011F484E103C0853419F485E0A6D080C0E4
:107E9000853579F488D0E82EFF2485D0082F10E0AE
:107EA000102F00270E291F29000F111F8ED06801E7
:107EB0006FC0863521F484E090D080E0DECF843638
:107EC00009F040C070D06FD0082F6DD080E0C81688
:107ED00080E7D80618F4F601B7BEE895C0E0D1E017
:107EE00062D089930C17E1F7F0E0CF16F0E7DF06D8
:107EF00018F0F601B7BEE89568D007B600FCFDCFD4
:107F0000A601A0E0B1E02C9130E011968C91119780
:107F100090E0982F8827822B932B1296FA010C0160
:107F200087BEE89511244E5F5F4FF1E0A038BF0790
:107F300051F7F601A7BEE89507B600FCFDCF97BE46
:107F4000E89526C08437B1F42ED02DD0F82E2BD052
:107F50003CD0F601EF2C8F010F5F1F4F84911BD097
:107F6000EA94F801C1F70894C11CD11CFA94CF0C13
:107F7000D11C0EC0853739F428D08EE10CD085E9AC
:107F80000AD08FE07ACF813511F488E018D01DD067
:107F900080E101D065CF982F8091C00085FFFCCF94
:107FA0009093C60008958091C00087FFFCCF809118
:107FB000C00084FD01C0A8958091C6000895E0E648
:107FC000F0E098E1908380830895EDDF803219F02E
:107FD00088E0F5DFFFCF84E1DECF1F93182FE3DFCA
:107FE0001150E9F7F2DF1F91089580E0E8DFEE27F6
:047FF000FF270994CA
:027FFE00040479
:00000001FF
